S00C0000544553542E73726563D8
S1130000007000201104000059040000590400008D
S113001059040000590400005904000000000000C5
S1130020000000000000000000000000590400006F
S1130030590400000000000059040000214A000097
S11300409D330000AB330000B9330000C733000018
S1130050D5330000E3330000F1330000FF33000028
S11300600D3400001B340000293400003734000034
S11300704534000053340000613400006F34000044
S11300807D340000590400005904000059040000A4
S113009059040000590400005904000059040000E8
S11300A059040000590400005904000059040000D8
S11300B059040000590400005904000059040000C8
S11300C059040000590400005904000059040000B8
S11303F0590400005904000059040000FFFFFFFFE6
S1130400FFFFFFFFFFFFFFFFFFFFFFFFFE7FFFFF79
S113041072B64FF000014FF000024FF000034FF0AE
S113042000044FF000054FF000064FF00007B846F7
S1130430B946BA46BB46BC4604488546044880478C
S11304400448804762B604F02DFBFEE700700020EC
S11304505D040000B5040000FFF7FEBF80B400AFE8
S11304604FF0E0224FF0E023D3F8883D43F47003CB
S1130470C2F8883D4FF0E0224FF0E023D3F8343F38
S113048023F08043C2F8343F084B094A5A60074BB3
S11304905B68064B42F220121A60044B4FF6FF725F
S11304A09A6000BFBD465DF8047B7047002005409C
S11304B020C528D980B48FB000AF3A4B3B633A4B88
S11304C03B623A4B7B613A4BFB623A4BFB613A4BE2
S11304D03B613A4BBB623A4BFB603A4B7B623A4B13
S11304E0BB613A4BBB6009E03B6A1A783B6B1A70FC
S11304F03B6B01333B633B6A01333B627A693B6A82
S11305009A42F1D109E0FB691A78FB6A1A70FB6A16
S11305100133FB62FB690133FB613A69FB699A426F
S1130520F1D105E0BB6A00221A70BB6A0133BB62D9
S1130530FA68BB6A9A42F5D109E0BB691A787B6A0A
S11305401A70BB690133BB617B6A01337B62BA6891
S1130550BB699A42F1D10023FB711D4A1D4B9A429B
S113056016D000237B630AE01A4A7B6B52F82320DF
S113057017497B6B41F823207B6B01337B63164B5C
S11305809B087A6B9A42EFD3144B114A1A6002E02B
S1130590124B104A1A6000BF3C37BD465DF8047B1D
S11305A0704700BF0084FF1F244D0000884F0000E7
S11305B06486FF1F884F0000884F00000000002061
S11305C07400002000000020884F0000884F0000C5
S11305D00080FF1F000000000004000008ED00E0A0
S11305E080B483B000AF78607B681B691B0903F09B
S11305F0030318460C37BD465DF8047B704780B48E
S113060087B000AFF8607B600B46FB721346BB7289
S1130610FB681B697B617B6923F03F037B61FB7A89
S1130620002B01D0012300E000237A6913437B618E
S1130630BB7A002B01D0022300E000237A69134324
S11306407B617B689B0003F00C037A6913437B6135
S11306503B6A1B0103F030037A6913437B61FB6837
S11306607A691A6100BF1C37BD465DF8047B704788
S113067080B485B000AF78600B46FB707B681B6C60
S1130680FB60FB6823F01003FB60FB78002B01D0B8
S1130690102300E00023FA681343FB607B68FA68C8
S11306A01A6400BF1437BD465DF8047B704780B4FC
S11306B085B000AF78607B681B6CFB60FB681B092E
S11306C003F00103FB60FB68002B14BF012300232C
S11306D0DBB218461437BD465DF8047B704780B41E
S11306E085B000AF78600B46FB707B681B6CFB60C9
S11306F0FB6823F00803FB60FB78002B01D0082380
S113070000E00023FA681343FB607B68FA681A640C
S113071000BF1437BD465DF8047B704780B485B0D4
S113072000AF78607B681B6CFB60FB68DB0803F040
S11307300103FB60FB68002B14BF01230023DBB221
S113074018461437BD465DF8047B704780B485B005
S113075000AF78600B46FB707B681B6CFB60FB682A
S113076023F00403FB60FB78002B01D0042300E09A
S11307700023FA681343FB607B68FA681A6400BFBD
S11307801437BD465DF8047B704780B485B000AF74
S113079078607B681B6CFB60FB689B0803F00103BB
S11307A0FB60FB68002B14BF01230023DBB2184657
S11307B01437BD465DF8047B704780B485B000AF44
S11307C078600B46FB707B681B6CFB60FB6823F056
S11307D00203FB60FB78002B01D0022300E000231E
S11307E0FA681343FB607B68FA681A6400BF143725
S11307F0BD465DF8047B704780B485B000AF786077
S11308007B681B6CFB60FB685B0803F00103FB6007
S1130810FB68002B14BF01230023DBB218461437F6
S1130820BD465DF8047B704780B485B000AF786046
S11308300B46FB707B681B6CFB60FB6823F00103B9
S1130840FB60FB78002B01D0012300E00023FA6851
S11308501343FB607B68FA681A6400BF1437BD4613
S11308605DF8047B704780B485B000AF78607B6826
S11308701B6CFB60FB6803F00103FB60FB68002B4F
S113088014BF01230023DBB218461437BD465DF8BC
S1130890047B704780B483B000AF78607B68DB680A
S11308A01B0E03F0030318460C37BD465DF8047BAA
S11308B0704780B483B000AF78607B68DB689B0EC0
S11308C003F0030318460C37BD465DF8047B7047FC
S11308D080B483B000AF78607B68DB681B0F03F0E3
S11308E0030318460C37BD465DF8047B704780B49B
S11308F083B000AF78607B68DB689B0F03F0030371
S113090018460C37BD465DF8047B704780B483B04D
S113091000AF78607B681B6903F00203002B14BFEF
S113092001230023DBB218460C37BD465DF8047B77
S1130930704780B483B000AF78607B681B6903F0B4
S11309400103002B14BF01230023DBB218460C372C
S1130950BD465DF8047B704780B483B000AF786017
S11309607B681B699B0803F0030318460C37BD46DC
S11309705DF8047B704780B483B000AF78607B6817
S11309805B6803F40063002B14BF01230023DBB274
S113099018460C37BD465DF8047B704780B483B0BD
S11309A000AF78607B685B681B0A03F00703184696
S11309B00C37BD465DF8047B704780B483B000AF4C
S11309C078607B685B681B0903F00F0318460C37DB
S11309D0BD465DF8047B704780B487B000AFF86013
S11309E07A603B600B46FB72FB685B687B617B69EA
S11309F023F47F637B61FB7A002B02D04FF4006306
S1130A0000E000237A6913437B617B681B01DBB23E
S1130A107A6913437B613B681B0203F4E0637A69E0
S1130A2013437B61FB687A695A6000BF1C37BD467B
S1130A305DF8047B704780B485B000AF786039609E
S1130A407B685B68FB60FB6823F48053FB603B6856
S1130A501B0303F48053FA681343FB607B68FA6852
S1130A605A6000BF1437BD465DF8047B704780B4FC
S1130A7083B000AF78607B689B6E7B6800229A66C7
S1130A8000BF0C37BD465DF8047B704780B485B069
S1130A9000AFF8607A603B600B46FB72FB7A002B78
S1130AA002D04FF0805200E000227B685B0003F02C
S1130AB00E031A433B6803F001031A43FB689A666A
S1130AC000BF1437BD465DF8047B704780B483B023
S1130AD000AF78607B681B6A1B0E03F00F03184697
S1130AE00C37BD465DF8047B704780B483B000AF1B
S1130AF078607B681B691B0E03F00F0318460C37E4
S1130B00BD465DF8047B704780B483B000AF786065
S1130B107B681B691B0C03F00F0318460C37BD469A
S1130B205DF8047B704780B483B000AF78607B6865
S1130B301B691B0903F00F0318460C37BD465DF80B
S1130B40047B704780B483B000AF78607B681B6916
S1130B5003F00F0318460C37BD465DF8047B70475D
S1130B6080B487B000AFF860B9607A603B60BB685E
S1130B701B0603F070627B681B0403F470231A43A2
S1130B803B681B01DBB21A433B6A03F00F031343B8
S1130B907B61FB687A695A6100BF1C37BD465DF80A
S1130BA0047B704780B487B000AFF860B9607A60A6
S1130BB03B60BB681B0603F070627B681B0403F494
S1130BC070231A433B681B01DBB21A433B6A03F0F0
S1130BD00F0313437B61FB687A699A6100BF1C377A
S1130BE0BD465DF8047B704780B487B000AFF86001
S1130BF0B9607A603B60BB681B0603F070627B6877
S1130C001B0403F470231A433B681B01DBB21A4331
S1130C103B6A03F00F0313437B61FB687A69DA6173
S1130C2000BF1C37BD465DF8047B704780B483B0B9
S1130C3000AF78607B68D3F8043303F007031846E9
S1130C400C37BD465DF8047B704780B483B000AFB9
S1130C5078607B68D3F804331B0A03F00703184653
S1130C600C37BD465DF8047B704780B487B000AF95
S1130C70F860B9607A60BB6803F007027B681B0206
S1130C8003F4E06313437B61FB687A69C3F80423CC
S1130C9000BF1C37BD465DF8047B704780B483B049
S1130CA000AF78607B68D3F8043203F0070318467A
S1130CB00C37BD465DF8047B704780B483B000AF49
S1130CC078607B68D3F804321B0A03F007031846E4
S1130CD00C37BD465DF8047B704780B487B000AF25
S1130CE0F860B9607A60BB6803F007027B681B0296
S1130CF003F4E06313437B61FB687A69C3F804225D
S1130D0000BF1C37BD465DF8047B704780B483B0D8
S1130D1000AF78607B68D3F8043103F0070318460A
S1130D200C37BD465DF8047B704780B483B000AFD8
S1130D3078607B68D3F804311B0A03F00703184674
S1130D400C37BD465DF8047B704780B487B000AFB4
S1130D50F860B9607A60BB6803F007027B681B0225
S1130D6003F4E06313437B61FB687A69C3F80421ED
S1130D7000BF1C37BD465DF8047B704780B483B068
S1130D8000AF78607B68D3F8043603F00703184695
S1130D900C37BD465DF8047B704780B483B000AF68
S1130DA078607B68D3F804361B0A03F007031846FF
S1130DB00C37BD465DF8047B704780B487B000AF44
S1130DC0F860B9607A60BB6803F007027B681B02B5
S1130DD003F4E06313437B61FB687A69C3F8042678
S1130DE000BF1C37BD465DF8047B704780B485B0F6
S1130DF000AF786039607B681B6AFB60FB6823F096
S1130E007063FB603B681B0603F07063FA6813436E
S1130E10FB607B68FA681A6200BF1437BD465DF850
S1130E20047B704780B485B000AF78607B68D3F8EA
S1130E300032FB60FB685B0E03F00103FB60FB68A0
S1130E40002B14BF01230023DBB218461437BD4620
S1130E505DF8047B704780B483B000AF78607B6832
S1130E60D3F8003203F08073002B14BF0123002356
S1130E70DBB218460C37BD465DF8047B704780B47E
S1130E8083B000AF78607B68D3F8083203F00103C5
S1130E9018460C37BD465DF8047B704780B483B0B8
S1130EA000AF78607B68D3F8003223F400027B68DB
S1130EB0C3F8002200BF0C37BD465DF8047B7047C1
S1130EC080B483B000AF78607B680022C3F800224E
S1130ED000BF0C37BD465DF8047B704780B483B017
S1130EE000AF78600B46FB70FB7803F001027B686F
S1130EF0C3F8082200BF0C37BD465DF8047B704779
S1130F0080B485B000AF7860084611461A4603469F
S1130F10FB700B46BB7013467B70FB78002B01D033
S1130F20032200E00122BB78002B01D0042300E05F
S1130F3000231A437B78002B02D04FF4000300E017
S1130F4000231343FB607B68FA68C3F8002200BFE8
S1130F501437BD465DF8047B704780B485B000AF9C
S1130F6078607B68D3F80033FB60FB685B0E03F0AA
S1130F700103FB60FB68002B14BF01230023DBB2D9
S1130F8018461437BD465DF8047B704780B483B0BF
S1130F9000AF78607B68D3F8003303F08073002BD4
S1130FA014BF01230023DBB218460C37BD465DF89D
S1130FB0047B704780B483B000AF78607B68D3F85B
S1130FC0083303F0030318460C37BD465DF8047B71
S1130FD0704780B483B000AF78607B68D3F8003387
S1130FE023F400027B68C3F8002300BF0C37BD461E
S1130FF05DF8047B704780B483B000AF78607B6891
S11310004FF08062C3F8002300BF0C37BD465DF883
S1131010047B704780B483B000AF78600B46FB70EC
S1131020FB7803F003027B68C3F8082300BF0C3786
S1131030BD465DF8047B704780B485B000AF78602E
S11310400B46FB701346BB70FB78002B01D00122CA
S113105000E00922BB78002B02D04FF4000300E02B
S113106000231343FB607B68FA68C3F8002300BFC6
S11310701437BD465DF8047B704780B485B000AF7B
S113108078607B68D3F80031FB60FB685B0E03F08B
S11310900103FB60FB68002B14BF01230023DBB2B8
S11310A018461437BD465DF8047B704780B483B09E
S11310B000AF78607B68D3F8003103F08073002BB5
S11310C014BF01230023DBB218460C37BD465DF87C
S11310D0047B704780B483B000AF78607B68D3F83A
S11310E0003123F400027B68C3F8002100BF0C37F1
S11310F0BD465DF8047B704780B483B000AF786070
S11311007B684FF08062C3F8002100BF0C37BD46F6
S11311105DF8047B704780B485B000AFF860B960B7
S11311207A603B60BB681B0103F030027B68DB0024
S113113003F008031A433B689B0003F004031A43BB
S1131140FB68C3F8082100BF1437BD465DF8047B73
S1131150704780B485B000AF7860084611461A46DF
S11311600346FB700B46BB7013467B70FB78002B69
S113117002D04FF0011200E00122BB78002B02D014
S11311804FF4003300E000231A437B78002B02D095
S11311904FF4000300E000231343FB607B68FA680C
S11311A0C3F8002100BF1437BD465DF8047B7047C7
S11311B080B485B000AF78607B68D3F80036FB60FC
S11311C0FB685B0E03F00103FB60FB68002B14BF9C
S11311D001230023DBB218461437BD465DF8047BB7
S11311E0704780B483B000AF78607B68D3F8003672
S11311F003F08073002B14BF01230023DBB21846D5
S11312000C37BD465DF8047B704780B483B000AFF3
S113121078607B68D3F808361B0A03F00703184686
S11312200C37BD465DF8047B704780B483B000AFD3
S113123078607B68D3F808361B0C03F01F0318464C
S11312400C37BD465DF8047B704780B483B000AFB3
S113125078607B68D3F8003623F400027B68C3F817
S1131260002600BF0C37BD465DF8047B704780B490
S113127083B000AF78607B684FF08062C3F80026CB
S113128000BF0C37BD465DF8047B704780B483B063
S113129000AF78600B46FB701346BB70FB781B02F3
S11312A003F4E062BB781B0403F4F8131A437B686D
S11312B0C3F8082600BF0C37BD465DF8047B7047B1
S11312C080B485B000AF7860084611461A460346DC
S11312D0FB700B46BB7013467B70FB78002B02D06F
S11312E04FF0011200E00122BB78002B02D04FF432
S11312F0003300E000231A437B78002B02D04FF424
S1131300000300E000231343FB607B68FA68C3F822
S1131310002600BF1437BD465DF8047B704700000B
S113132080B487B000AFF8607B600B46FB72134655
S1131330BB727B681B0603F0E0627B6ADB0003F090
S113134008031A433B6A03F007031A43BB7A002BD2
S113135002D04FF0804300E0002313437B61FB7A0B
S1131360064A32F813301946FB687A6943F821209B
S113137000BF1C37BD465DF8047B7047004B00007E
S113138080B483B000AF78600B46FB701346BB702B
S1131390BB78002B12D0FB78144A32F8133019466C
S11313A0FB78124A32F813301A467B6853F822301D
S11313B043F080427B6843F8212011E0FB780B4A1C
S11313C032F813301946FB78084A32F813301A46BB
S11313D07B6853F8223023F080427B6843F8212055
S11313E000BF0C37BD465DF8047B7047004B00001E
S11313F080B485B000AF78600B46FB70FB780C4A74
S113140032F813301A467B6853F82230FB60FB68CD
S11314109B0F03F00103FB60FB68002B14BF012347
S11314200023DBB218461437BD465DF8047B7047D1
S1131430004B000080B483B000AF78600B46FB70B3
S1131440FB78084A32F813301A467B6853F8223086
S11314501B0E03F0070318460C37BD465DF8047BEA
S1131460704700BF004B000080B483B000AF7860C9
S11314700B46FB70FB78084A32F813301A467B6837
S113148053F82230DB0803F0010318460C37BD463D
S11314905DF8047B704700BF004B000080B483B04C
S11314A000AF78600B46FB70FB78074A32F81330C4
S11314B01A467B6853F8223003F0070318460C37AA
S11314C0BD465DF8047B7047004B000080B485B0D6
S11314D000AF78600B46FB707B689B78FB73FB7BEB
S11314E003F07F03FB73FB7883F00103DBB2DB01C2
S11314F0DAB2FB7B1343FB737B68FA7B9A7000BF01
S11315001437BD465DF8047B704780B485B000AFE6
S113151078607B689B78FB73FB7BDB09FB73FB7B4D
S1131520002B0CBF01230023DBB218461437BD4641
S11315305DF8047B704780B485B000AF78600B46DB
S1131540FB70FB78FB7397F90F30002B06DA20232E
S1131550BB73FA7BBB7B1344DBB2FB73FB7B7B73F8
S11315607B681B793B733B7B23F01F033B7397F929
S11315700D3003F01F035AB297F90C3013435BB2DA
S11315803B737B683A7B1A7100BF1437BD465DF824
S1131590047B704780B483B000AF78607B685B697C
S11315A0DBB218460C37BD465DF8047B704780B546
S11315B0A2B000AF78607B68C7F884307B68002BEA
S11315C008D107F10803184600F08CF907F1080365
S11315D0C7F88430D7F88430184600F01FF8034663
S11315E0A7F88230B7F88230002B11D1D7F88430B5
S11315F06C33184600F06CF8D7F88430443318463E
S113160000F0C2F8D7F884307433184600F04EF96D
S1131610B7F8823018468837BD4680BD80B584B09F
S113162000AF78600023FB817B68002B46D001F07B
S1131630ABF80346FB81FB89002B04D1786801F0E9
S1131640D7F80346FB81FB89002B37D17B6893F8DD
S11316503030002B03D07B68DB6A1B4A13607B6845
S113166093F83530002B06D07B6893F83430194654
S11316701648FFF7BBFB7B6893F84330002B1DD063
S11316807B6836331946012001F028FA0346FB81B2
S1131690FB89002B07D17B683A331946022001F0FD
S11316A01DFA0346FB81FB89002B07D17B683E337F
S11316B01946032001F012FA0346FB81FB89184600
S11316C01037BD4680BD00BF5400002000400640D6
S11316D0F0B587B002AF78607B68002B4DD07B6893
S11316E05B68002B49D00023FB6041E07B685968AC
S11316F0FA6813469B0013440B441B7800221946D6
S11317002048FFF73DFE7B685968FA6813469B0042
S113171013440B4418787B685968FA6813469B0095
S113172013440B445C787B685968FA6813469B0041
S113173013440B449B781E467B685968FA68134629
S11317409B0013440B441B791D467B685968FA6857
S113175013469B0013440B44DB78019300953346F6
S1131760224601460748FFF7DBFDFB680133FB60B7
S11317707B681A68FB689A42B8D800BF1437BD4624
S1131780F0BD00BF0050064080B586B002AF78605F
S11317907B681B78002B09D07B6859787B689B7821
S11317A01A467B68DB783F48FFF716F97B681B799C
S11317B0002B0DD07B68197A7B68DA797B689B797A
S11317C018467B685B79009303463648FEF717FF9B
S11317D07B681B7F002B1FD07B685B7F19463148D9
S11317E0FFF722F87B689B7F19462E48FEF7E5FF3A
S11317F07B68DB7F19462B48FEF7A8FF7B6893F8CC
S1131800203019462748FEF76AFF7B6893F8213099
S113181019462448FEF72CFF7B681B7B002B15D050
S11318200023FB730FE0FB7B022B09D8FA7BFB7BC5
S1131830796802339B000B449B681B4941F82230B2
S1131840FB7B0133FB73FB7B022BECD97B6893F8A6
S11318502230002B21D01348FFF709F97B6893F855
S1131860243019460F48FFF7E6F800230022002130
S11318700C48FFF70BF97B6893F82330002B0CD04E
S11318807B6893F823107B6893F825301A467B68AD
S113189093F826300348FFF7F9F800BF1037BD4628
S11318A080BD00BF008004404800002080B582B0A5
S11318B000AF78607B681B78002B0CD07B685B786A
S11318C019460748FFF702FE7B6893F90230194670
S11318D00348FFF730FE00BF0837BD4680BD00BF98
S11318E000D0074080B483B000AF78607B680122E9
S11318F0DA707B6800221A717B6801225A717B6856
S113190000229A717B6801221A707B6801225A7046
S11319107B6801229A707B6801229A737B6801229A
S11319201A737B6800225A737B680022DA717B6821
S113193001221A727B6801225A727B68012283F8A1
S113194030207B680022DA627B6801225A777B6848
S1131950754A1A617B6800221A757B6800221A771F
S11319607B6801225A757B6800229A757B68022283
S1131970DA757B6801221A767B6801225A767B68C5
S1131980012283F828207B68002283F820207B68CA
S1131990002283F827207B68002283F821207B68BB
S11319A00C2283F822207B68002283F823207B68A2
S11319B0012283F824207B68012283F825207B6898
S11319C0012283F835207B68032283F834207B6866
S11319D0012283F843207B68032283F839207B6843
S11319E0002283F838207B68012283F837207B6843
S11319F0012283F836207B68022283F83D207B682D
S1131A00012283F83C207B68002283F83B207B681A
S1131A10032283F83A207B68062283F841207B68FE
S1131A20002283F840207B68012283F83F207B68F2
S1131A30032283F83E207B683C4A1A677B68202295
S1131A40DA667B68012283F844207B68002283F8ED
S1131A5045207B68002283F846207B68002283F8B7
S1131A6047207B68012283F848207B68012283F8A1
S1131A704C207B68012283F84B207B68002283F88A
S1131A804A207B68002283F849207B68012283F87E
S1131A9060207B68012283F861207B68012283F83F
S1131AA062207B68012283F863207B68012283F82B
S1131AB064207B68012283F865207B68012283F817
S1131AC06B207B68012283F850207B6800225A65D2
S1131AD07B6800229A657B680022DA657B680122B4
S1131AE083F866207B68012283F867207B680022E4
S1131AF083F868207B68002283F869207B680022D1
S1131B0083F86A207B68012283F874207B680122B1
S1131B1083F875207B68002283F8762000BF0C3799
S1131B20BD465DF8047B704700127A00B885FF1F3C
S1131B3080B584B000AF03463960FB710023FB819C
S1131B400023BB60FB79112B00F2838001A252F8C1
S1131B5023F000BF9D1B0000A71B0000B11B000069
S1131B60BB1B0000C31B0000CB1B0000D31B0000E9
S1131B70DB1B0000E31B0000EB1B0000F31B000059
S1131B80FF1B00000B1C0000171C0000231C00009E
S1131B902F1C00003B1C0000471C0000002000F02C
S1131BA00BFFB86058E0012000F006FFB86053E076
S1131BB0022000F001FFB8604EE000F013FBB860B3
S1131BC04AE001F04BF9B86046E001F063F9B8600F
S1131BD042E001F02BF9B8603EE001F079F9B86019
S1131BE03AE0234B1B68BB6036E000F073FBB8603F
S1131BF032E00021042001F08BF8B8602CE00121D0
S1131C00042001F085F8B86026E00021052001F0E9
S1131C107FF8B86020E00121052001F079F8B86070
S1131C201AE00021062001F073F8B86014E00121E5
S1131C30062001F06DF8B8600EE00021072001F0E5
S1131C4067F8B86008E00121072001F061F8B86086
S1131C5002E00423FB8100BF3B68002B02D03B68F9
S1131C60BA681A60FB8918461037BD4680BD00BFAC
S1131C705400002080B586B000AF03463960FB7184
S1131C800023FB8200233B61FB79153B0E2B00F202
S1131C90DA8001A252F823F0D51C0000F11C0000E8
S1131CA00D1D0000291D0000451D00004D1D0000F4
S1131CB0551D0000691D00008D1D0000B11D0000B0
S1131CC0C51D0000DF1D0000F91D0000131E0000EB
S1131CD02D1E00006F48FEF7DDFDF860FB68022B47
S1131CE000F2B4806C4AFB6852F823303B61ADE0EB
S1131CF06848FEF7DEFDF860FB68022B00F2A8805E
S1131D00654AFB6852F823303B61A1E06148FEF765
S1131D10DFFDF860FB68022B00F29C805E4AFB68E2
S1131D2052F823303B6195E05A48FEF7E0FDF86035
S1131D30FB68022B00F29080574AFB6852F823306C
S1131D403B6189E000F04EFA386198E000F0FCFA5B
S1131D50386194E05148FFF7D8FB0346002B7DD04F
S1131D6001F0E8F8386179E04C48FFF7CEFB034610
S1131D70002B75D04748FEF7DCFD0346002B02D04C
S1131D804FF47A7300E000233B6169E04348FFF7B6
S1131D90BCFB0346002B65D03E48FEF7B7FD034667
S1131DA0002B02D04FF4FA4300E000233B6159E0DA
S1131DB03A48FFF7AAFB0346002B55D04FF4FA33F9
S1131DC03B6151E03348FEF772FC034683F00103A4
S1131DD0DBB2002B4AD04FF48073FB8246E02D48DF
S1131DE0FEF79CFC034683F00103DBB2002B3FD0DB
S1131DF04FF48073FB823BE02648FEF7C6FC0346A3
S1131E0083F00103DBB2002B34D04FF48073FB82E8
S1131E1030E02048FEF7F0FC034683F00103DBB218
S1131E20002B29D04FF48073FB8225E01948FEF77C
S1131E301AFD034683F00103DBB2002B1ED04FF4DE
S1131E408073FB821AE00423FB8218E000BF16E0D3
S1131E5000BF14E000BF12E000BF10E000BF0EE0BE
S1131E6000BF0CE000BF0AE000BF08E000BF06E0CE
S1131E7000BF04E000BF02E000BF00E000BF3B6819
S1131E80002B02D03B683A691A60FB8A184618375F
S1131E90BD4680BD008004404800002000D00740BB
S1131EA080B584B000AF0346FB710023FB81FB794E
S1131EB0242B0ED9FB79332B0BD0FB79392B08D08B
S1131EC0FB793B2B05D0FB79402B02D0FB794D2BC2
S1131ED002D10423FB8110E0FB7919460948FFF77E
S1131EE087FA034683F00103DBB2002B03D04FF4DF
S1131EF08073FB8101E00023FB81FB8918461037C6
S1131F00BD4680BD0050064080B584B000AF034696
S1131F103960FB710023FB810023BB60FB79184609
S1131F20FFF7BEFF0346FB81FB89002B60D1FB79E1
S1131F30354AD35C03F02003002B0BD0012000F0C2
S1131F403BFD0346002B02D14FF4807300E00023D5
S1131F50FB8123E0FB792C4AD35C03F04003002B84
S1131F600BD0002000F028FD0346002B02D14FF4D3
S1131F70807300E00023FB8110E0FB79224AD35CEC
S1131F805BB2002B0ADA022000F016FD0346002B98
S1131F9002D14FF4807300E00023FB81FB89002B06
S1131FA026D1FB79184AD35C03F01803002B1FD009
S1131FB0FB79154AD35C03F00803002B05D0FB79A9
S1131FC00021184600F050F8B860FB790E4AD35C43
S1131FD003F01003002B05D0FB790121184600F013
S1131FE043F8B860BB68002B02D14FF48073FB81C7
S1131FF03B68002B02D03B68BA681A60FB8918461C
S11320001037BD4680BD00BFA04B000080B584B032
S113201000AF03463960FB71FB79112B07D8FB79BC
S113202039681846FFF784FD0346FB8117E0FB7906
S1132030232B07D8FB7939681846FFF71BFE0346A4
S1132040FB810CE0FB794D2B07D8FB7939681846E6
S1132050FFF75AFF0346FB8101E00423FB81FB8960
S113206018461037BD4680BD80B586B000AF034624
S11320700A46FB711346BB7100237B61FB79194649
S11320802E48FFF7F1F93861FB7919462B48FFF721
S113209005FAF8603A69FB689A424AD8FB7919460E
S11320A02648FFF7A5F90346002B42D0FB791946D1
S11320B02248FFF7BFF90346013B052B2AD801A2AA
S11320C052F823F0DD200000EB200000F92000008E
S11320D0152100001521000007210000BB791946D5
S11320E0062000F015FE786117E0BB79194604203C
S11320F000F00EFE786110E0BB791946052000F06F
S113210007FE786109E0BB791946072000F000FE5C
S1132110786102E000237B6100BFFB6801337A69C8
S1132120B2FBF3F37B613B695A1C7B6902FB03F34B
S11321307B617B6918461837BD4680BD0050064058
S113214080B582B000AF0E48FFF724FA0346042B93
S11321500AD0802B02D0012B03D008E00323FB71AB
S113216008E00123FB7105E00223FB7102E0042374
S1132170FB7100BFFB7918460837BD4680BD00BF20
S113218000E0074080B586B000AF78600023FB8292
S1132190FFF7D6FF0346FB73FB7B7968184600F014
S11321A09DFC0346FB82FB8A002B14D10A233B616E
S11321B03B69013B3B610A48FEF797FC02467B689A
S11321C0DB789A4202D03B69002BF1D13B69002BAA
S11321D001D10323FB82FB8A18461837BD4680BD14
S11321E00040064080B582B000AF3948FEF7C3FB1B
S11321F00346002B65D03648FEF7DFFB03460E2B63
S113220052D801A252F823F045220000A92200006E
S11322104D220000A922000059220000A92200003A
S113222065220000712200007B220000872200004A
S113223091220000A922000099220000A922000096
S1132240A122000000F046F8786030E00121062069
S113225000F05EFD78602AE00121042000F058FDC2
S1132260786024E00121052000F052FD78601EE032
S1132270002000F0A1FB786019E00121072000F0A4
S113228047FD786013E0012000F096FB78600EE0D3
S11322904FF4FA337B600AE000F04CFE786006E00D
S11322A000F052F8786002E000237B6000BF084829
S11322B0FEF774FB034601337A68B2FBF3F37B60E9
S11322C001E000237B607B6818460837BD4680BD6B
S11322D00080044080B582B000AF1A48FEF7F6FBD8
S11322E00346062B25D801A252F823F00923000047
S11322F0132300001B2300002323000033230000CA
S1132300332300002B230000022000F055FB7860EB
S113231012E000F08BFD78600EE000F09FFD786025
S11323200AE000F0B7FD786006E000F0D1FD7860C7
S113233002E000237B6000BF7B6818460837BD4677
S113234080BD00BF0040064080B582B000AF1A488F
S1132350FEF746F90346032B26D801A252F823F0D0
S1132360712300007D230000952300009D230000BD
S11323700021062000F0CCFC786018E00E48FEF73F
S1132380C5FA0346002B02D04FF4FA4300E00023C1
S11323907B600CE0094B1B687B6008E00021052092
S11323A000F0B6FC786002E000237B6000BF7B682D
S11323B018460837BD4680BD008004405400002004
S11323C080B588B000AF03463960FB710023FB83FE
S11323D03B68002B0FD100233B7401237B74002343
S11323E0BB7401237B730123BB7301233B7307F18C
S11323F00C03BB6101E03B68BB612248FEF712FDA0
S11324000346002B02D00223FB8305E01D48FEF7A0
S113241045FD1C48FEF754FDFB79002B2DD0FB8BAA
S1132420002B2AD1BB695B781946BB699B781A4695
S11324301448FEF752FCBB691B7819461148FEF795
S11324404DFDBB691979BB695A79BB699B790D4804
S1132450FEF756FD64237B6102E07B69013B7B61EF
S113246000F0FCFC0346002B02D17B69002BF4D165
S11324707B69002B01D10323FB83FB8B1846203798
S1132480BD4680BD0040064080B588B000AF03461D
S11324903960FB710023FB833B68002B0DD10123C2
S11324A07B740023BB7401237B730123BB73002360
S11324B03B7307F10C03BB6101E03B68BB6122483D
S11324C0FEF74BFD0346002B02D00223FB8305E0FD
S11324D01D48FEF77EFD1C48FEF78DFDFB79002BA1
S11324E02CD0FB8B002B29D1BB695B781946BB69C7
S11324F09B781A461448FEF7B8FBBB691B7819464B
S11325001148FEF787FDBB695979BB699B791A4667
S11325100D48FEF791FD14237B6102E07B69013BCA
S11325207B6100F0B7FC0346002B02D17B69002BD2
S1132530F4D17B69002B01D10323FB83FB8B184669
S11325402037BD4680BD00BF0040064080B58AB03C
S113255000AF03463960FB710023FB843B68002B0A
S113256013D100233B7400233B7601233B750123E5
S11325707B7501237B740023BB740223FB74384BEB
S1132580FB6007F10C033B6201E03B683B623548AA
S1132590FEF773FD0346002B02D00223FB8408E000
S11325A03048FEF797FD2F48FEF7A6FD2E4B00227C
S11325B01A60FB79002B4ED0FB8C002B4BD13B6A6D
S11325C01B7A19463B6A5B7A1A462648FEF7BDFB1E
S11325D03B6ADB7919463B6A9B791A463B6A5B790D
S11325E02048FEF798FD3B6A1B79012B0CD0022B87
S11325F012D0002B00D017E03B6A1B7B0022002185
S11326001848FEF7A6FD0FE03B6A1B7B0022012160
S11326101448FEF79EFD07E03B6A1B7B0122012163
S11326201048FEF796FD00BF3B6A1B680E4A136014
S11326300E4BFB6102E0FB69013BFB6100F0F6FB22
S11326400346002B02D1FB69002BF4D1FB69002B5C
S113265001D10323FB84FB8C18462837BD4680BD7B
S113266000127A00004006405800002088E730003D
S113267080B58AB000AF03463960FB710023FB8448
S11326803B68002B11D100233B730023FB7401230F
S11326903B7401237B7400237B730723BB730023E8
S11326A0FB7307F10C033B6201E03B683B62354876
S11326B0FEF77EFD0346002B02D00223FB8405E0D7
S11326C03048FEF7C2FD2F48FEF7D1FDFB79002B01
S11326D052D0FB8C002B4FD100F0A8FBB8613B6AB1
S11326E05B780133BA69B2FBF3F3BB613B6A1B79D4
S11326F019463B6A5B791A462248FEF75EFB3B6A41
S113270059783B6A9B781A461E48FEF7BFFD3B6A20
S11327101B78012B0CD0022B12D0002B00D017E019
S11327203B6ADB79002200211648FEF7C9FD0FE061
S11327303B6ADB79002201211248FEF7C1FD07E064
S11327403B6ADB79012201210E48FEF7B9FD00BF87
S11327504FF47A73FB6102E0FB69013BFB6100F01B
S1132760B7FB0346002B02D1FB69002BF4D1FB69B4
S1132770002B01D10323FB84FB8C18462837BD466C
S113278080BD00BF0040064080B582B000AF00238A
S1132790FB801548FEF7A9F90346032B1ED000F071
S11327A079FB0346002B05D100210120FFF76CFEC5
S11327B00346FB80FB88002B10D10323FB700B4BDB
S11327C0DB78BB70094B1B797B70084B5B793B70E2
S11327D03B461846FFF7D6FC0346FB80FB881846A9
S11327E00837BD4680BD00BF00400640F04B0000E6
S11327F080B586B000AF78600023FB827B68DB780D
S11328007A6811461846FFF7DBFD0346FB82FB8A14
S1132810002B17D17B685A7F7B681033194610460A
S1132820FFF794FE0346FB82FB8A002B0AD17B68E8
S113283093F828207B68203319461046FFF718FFC9
S11328400346FB82FFF77CFC0346022B07D0032BD5
S113285009D0012B0BD17B6836333B610AE07B68DE
S11328603A333B6106E07B683E333B6102E0002380
S11328703B6100BFFB8A002B40F096803B69DB780C
S1132880032B71D10123FB827B6893F82830002B42
S113289014D0FB8A012B11D10623FB73454B5B7AC1
S11328A0BB73444B9B7A7B73424BDB7A3B7307F1DC
S11328B00C031846FFF766FC0346FB827B685B7FCC
S11328C0002B14D0FB8A012B11D10123FB73394B4C
S11328D09B79BB73374BDB797B73364B1B7A3B732A
S11328E007F10C031846FFF74DFC0346FB827B6897
S11328F0DB78002B14D0FB8A012B11D10223FB734C
S11329002C4B1B78BB732B4B5B787B73294B9B78CD
S11329103B7307F10C031846FFF734FC0346FB82B4
S1132920FB8A002B40D17B689A7B7B68073319466E
S11329301046FFF7A9FD0346FB82FB8A002B33D127
S11329403B69DB78FB733B699B78BB733B695B78C2
S11329507B733B691B783B7307F10C031846FFF745
S113296011FC0346FB821FE03B69DB78FB733B6988
S11329709B78BB733B695B787B733B691B783B73C8
S113298007F10C031846FFF7FDFB0346FB82FB8AA5
S1132990002B09D17B689A7B7B6807331946104664
S11329A0FFF772FD0346FB82FB8A18461837BD46C3
S11329B080BD00BFFC4B000080B584B000AF03466F
S11329C0FB712C48FEF791F80346013B052B1FD8F9
S11329D001A252F823F000BFF1290000F9290000F8
S11329E0012A0000112A0000112A0000092A00000F
S11329F000F01CFAF8600EE000F030FAF8600AE02B
S1132A0000F048FAF86006E000F062FAF86002E0CC
S1132A100023FB6000BF1748FEF776F80346013336
S1132A20FA68B2FBF3F3FB60FB79012B04D0022BB1
S1132A300CD0002B17D013E00E48FEF774F80346B1
S1132A400133FA68B2FBF3F3FB600DE00948FEF7CB
S1132A5079F803460133FA68B2FBF3F3FB6003E051
S1132A600023FB6000E000BFFB6818461037BD463A
S1132A7080BD00BF0040064080B584B000AF03466F
S1132A80FB710023FB60FB79013B052B1ED801A2DF
S1132A9052F823F0AD2A0000B52A0000BD2A000038
S1132AA0CD2A0000CD2A0000C52A000000F0BEF99E
S1132AB0F8600EE000F0D2F9F8600AE000F0EAF9FC
S1132AC0F86006E000F004FAF86002E00023FB601E
S1132AD000BFFB6818461037BD4680BD80B58AB07C
S1132AE002AF03463960FB710023FB830023BB6103
S1132AF03B689B7801337B613B689B7801333A6880
S1132B005278013202FB03F33B613B689B7801334B
S1132B103A681278013202FB03F3FB603B68DB780E
S1132B201846FFF7A9FFB861BB691B09BB61FB79B4
S1132B30022B4ED0032B00F09580012B00D0DAE05D
S1132B403B68DB7819466E4A0B465B000B449B00DE
S1132B5013441B681B097A6902FB03F2BB699A429E
S1132B6023D33B68DB781946654A0B465B000B446C
S1132B709B00134404331B681B093A6902FB03F2EC
S1132B80BB699A4211D33B68DB7819465C4A0B4611
S1132B905B000B449B00134408331B681B09FA6851
S1132BA002FB03F2BB699A4202D20123FB83A2E037
S1132BB03B68DB7819463B689B781A463B685B7830
S1132BC018463B681B78009303464E48FDF7C8FF40
S1132BD091E03B68DB7819464B4A0B465B000B449B
S1132BE09B0013441B681B097A6902FB03F2BB694F
S1132BF09A4223D33B68DB781946434A0B465B0071
S1132C000B449B00134404331B681B093A6902FB01
S1132C1003F2BB699A4211D33B68DB7819463A4AFE
S1132C200B465B000B449B00134408331B681B09D1
S1132C30FA6802FB03F2BB699A4202D20123FB83C6
S1132C4059E03B68DB7819463B689B781A463B6839
S1132C505B7818463B681B78009303462948FDF7C8
S1132C60A1FF48E03B68DB781946284A0B465B0025
S1132C700B449B0013441B681B097A6902FB03F293
S1132C80BB699A4223D33B68DB7819461F4A0B463B
S1132C905B000B449B00134404331B681B093A6913
S1132CA002FB03F2BB699A4211D33B68DB781946F5
S1132CB0164A0B465B000B449B00134408331B6805
S1132CC01B09FA6802FB03F2BB699A4202D2012390
S1132CD0FB830FE03B68DB7819463B689B781A4618
S1132CE03B685B7818463B681B78009303460548AD
S1132CF0FDF77AFF00BFFB8B18462037BD4680BD29
S1132D00084C0000004006405C4C0000B04C000041
S1132D1080B584B000AF03460A46FB711346BB710D
S1132D200023BB60BB79002B02D0012B34D067E0B9
S1132D30FB79043B032B2BD801A252F823F000BFEC
S1132D40612D0000512D0000712D0000812D000027
S1132D5000F0A0F8F8603448FDF768FFB8601AE0A6
S1132D6000F07CF8F8603048FDF798FFB86012E096
S1132D7000F05CF8F8602C48FDF7C8FFB8600AE082
S1132D8000F0A6F8F8602848FDF7F8FFB86002E004
S1132D900023FB6000BF36E0FB79043B032B2BD8F8
S1132DA001A252F823F000BFC92D0000B92D000084
S1132DB0D92D0000E92D000000F06CF8F8601A48E5
S1132DC0FDF743FFB8601AE000F048F8F8601648D1
S1132DD0FDF773FFB86012E000F028F8F8601248BD
S1132DE0FDF7A3FFB8600AE000F072F8F8600E483F
S1132DF0FDF7D3FFB86002E00023FB6000BF02E0F0
S1132E000023FB6000BFBB68002B06D0BB68013BFE
S1132E10FA6822FA03F3FB6001E00023FB60FB681D
S1132E2018461037BD4680BD0040064080B582B0CC
S1132E3000AF0848FEF73AF90346002B03D0064BCF
S1132E401B687B6001E000237B607B6818460837C1
S1132E50BD4680BD004006405800002080B582B0C9
S1132E6000AF00237B600948FDF7F5FF0346002B04
S1132E7007D00648FEF703F80346002B01D0044BA5
S1132E807B607B6818460837BD4680BD004006401D
S1132E9000127A0080B582B000AF0B48FEF776F8D6
S1132EA00346002B08D00848FEF784F80246074B77
S1132EB053F822307B6001E000237B607B68184676
S1132EC00837BD4680BD00BF00400640044D0000E9
S1132ED080B582B000AF1648FEF783F90346002B95
S1132EE01ED0FFF7A3FF78607B68002B15D0104835
S1132EF0FEF78BF9034601337A68B2FBF3F37B6088
S1132F000B48FEF792F9034603F110027B6802FBBB
S1132F1003F37B607B685B087B607B683B6001E05C
S1132F2000233B603B6818460837BD4680BD00BFA0
S1132F300040064080B582B000AF00237B601B4890
S1132F40FDF70AFD0346032B29D801A252F823F00A
S1132F50612F0000692F00006F2F0000872F0000F1
S1132F604FF4FA337B601BE000237B6018E00F48CA
S1132F70FDF7CCFC0346002B02D04FF4FA4300E0EB
S1132F8000237B600CE00948FDF7C0FC0346002BDE
S1132F9002D04FF4FA4300E000237B6000E000BF5E
S1132FA07B6818460837BD4680BD00BF00800440DA
S1132FB080B485B000AFF8607A601A460B46FB72A5
S1132FC01346BB720A4AFB681360094AFB7A137101
S1132FD0074A7B689360064ABB7A1373044ABB7A38
S1132FE05373002318461437BD465DF8047B7047BD
S1132FF03800002080B586B000AF03460A46FB7156
S11330001346BB710023BB82FB793B73BB797B7393
S113301000F0B2FA534B1A7B524B5A730123BB7321
S11330200023FB7525E04F4B9A68FB7D9B001344FE
S11330301B683B613B69002B18D03B691B79022B51
S113304014D03B691B683A69916807F10C02104679
S113305098470346002B09D0424AFB7D5373BB7942
S1133060002B03D140F20313BB8207E0FB7D013345
S1133070FB753C4B1B7BFA7D9A42D4D3BB8A002B55
S113308002D0BB79012B14D1364B1A68FB799B0013
S113309013441B68184600F077F80346BB82BB8ACA
S11330A0002B0CBF01230023BB752E4AFB795371FF
S11330B001E00023BB75BB7D002B30D00223BB7322
S11330C00023FB7525E0274B9A68FB7D9B00134486
S11330D01B683B613B69002B18D03B691B79012BB2
S11330E014D03B691B683A69916807F10C021046D9
S11330F098470346002B09D01A4AFB7D5373BB79CA
S1133100002B03D14FF48273BB8224E0FB7D013397
S1133110FB75144B1B7BFA7D9A42D4D31BE000232E
S1133120BB73104B9A68FB7D9B0013441B683B6187
S11331303B69002B07D03B691B683A69916807F12A
S11331400C0210469847FB7D002B03D0FB7D013B0E
S1133150FB75E6E700BF00F0F7F9BB8A184618379D
S1133160BD4680BD3800002080B582B000AF034664
S11331703960FB71FB7939681846FEF747FF03464F
S113318018460837BD4680BD80B582B000AF786070
S11331907868FEF70CFA034618460837BD4680BD2A
S11331A080B483B000AF78600B46FB707B68FA781C
S11331B09A7700BF0C37BD465DF8047B704780B436
S11331C083B000AF78600B46FB707B68FA781A779F
S11331D000BF0C37BD465DF8047B704780B483B0F4
S11331E000AF78600B46FB707B68FA78DA7700BF33
S11331F00C37BD465DF8047B7047000080B584B091
S113320000AF0346FB71FB791B09FB73FB7903F0E9
S11332100F03BB73074BBB60BB7B1946B868FFF752
S1133220CEFFBB7B1946B868FFF7D8FF00BF103745
S1133230BD4680BD0080004080B584B000AF034629
S1133240FB710F4B1B68FA7953F82230FB60FB7952
S11332501846FFF7D3FFFB68002B0CD0FB685B68B4
S1133260002B08D0FB685B68FA689068FA68127BE8
S1133270D2B21146984700BF1037BD4680BD00BF8B
S11332805C00002080B586B000AF0346FB71FB797B
S11332901B09FB75FB7903F00F03BB75164B3B61F0
S11332A0BB7D00221946386900F054F8134B1B68A3
S11332B0FA7953F82230FB60FB68002B18D0FB79B5
S11332C01846FFF79BFFBB7D19463869FFF768FF77
S11332D0FB6801221A73FB685B68002B08D0FB684B
S11332E05B68FA689068FA68127BD2B21146984714
S11332F000BF1837BD4680BD008000405C00002040
S113330080B584B000AF0346FB71FB791B09FB73E6
S1133310FB7903F00F03BB73064BBB60BB7B00223E
S11333201946B86800F016F8002318461037BD4651
S113333080BD00BF0080004080B483B000AF7860DF
S1133340034B18460C37BD465DF8047B704700BF3D
S11333500080004080B483B000AF78600B46FB70FF
S11333601346BB70BB78002B03D07B68FA78DA76FF
S113337002E07B68FA789A7600BF0C37BD465DF8A8
S1133380047B704780B483B000AF78607B68DB6AED
S113339018460C37BD465DF8047B704780B500AF16
S11333A00020FFF749FF00BF80BD80B500AF0120BA
S11333B0FFF742FF00BF80BD80B500AF0220FFF7DA
S11333C03BFF00BF80BD80B500AF0320FFF734FF93
S11333D000BF80BD80B500AF0420FFF72DFF00BF04
S11333E080BD80B500AF0520FFF726FF00BF80BD7C
S11333F080B500AF0620FFF71FFF00BF80BD80B57A
S113340000AF0720FFF718FF00BF80BD80B500AFF5
S11334100820FFF711FF00BF80BD80B500AF092071
S1133420FFF70AFF00BF80BD80B500AF0A20FFF799
S113343003FF00BF80BD80B500AF0B20FFF7FCFE8B
S113344000BF80BD80B500AF0C20FFF7F5FE00BFC4
S113345080BD80B500AF0D20FFF7EEFE00BF80BD3C
S113346080B500AF0E20FFF7E7FE00BF80BD80B53A
S113347000AF0F20FFF7E0FE00BF80BD80B584B031
S113348000AF0020FFF758FF78607868FFF77AFFF5
S1133490F8600023FB720023FB720EE0FB6803F06C
S11334A00103002B03D0FB7A1846FFF7EBFEFB6801
S11334B05B08FB60FB7A0133FB72FB7A0F2BEDD9BF
S11334C000BF1037BD4680BD80B487B000AF03464F
S11334D0B9607A60FB730E4B7B617B68002B09D06B
S11334E097F90F3010339B007A6913441B681A460E
S11334F07B681A6097F90F3010339B007A69134484
S1133500BA681A6000BF1C37BD465DF8047B70477B
S11335100080FF1F80B483B000AF0346FB710949EC
S113352097F907305B09FA7902F01F02012000FACB
S113353002F241F8232000BF0C37BD465DF8047B3E
S1133540704700BF00E100E080B400AF094B1B6886
S1133550002B09DD074B1B68013B064A1360054B32
S11335601B68002B00DC62B600BFBD465DF8047B1F
S1133570704700BF6000002080B400AF72B6054BF6
S11335801B680133034A136000BFBD465DF8047B2A
S1133590704700BF6000002080B483B000AF786043
S11335A00B46FB707B689B6923F40022FB78002B9D
S11335B002D04FF4002300E000231A437B689A6191
S11335C000BF7B689B6903F40023002B14BF012315
S11335D00023DBB21A46FB789A42F2D100BF0C37C3
S11335E0BD465DF8047B704780B483B000AF78605B
S11335F00B46FB707B689B6923F48022FB78002BCD
S113360002D04FF4802300E000231A437B689A61C0
S113361000BF7B689B6903F48023002B14BF012344
S11336200023DBB21A46FB789A42F2D100BF0C3772
S1133630BD465DF8047B704780B485B000AF786008
S113364039607B681B69FB60FB6823F4FF5323F03C
S11336501F03FB603B68C3F30C03FA681343FB606E
S11336607B68FA681A6100BF1437BD465DF8047BB5
S1133670704780B485B000AF786039607B681B699F
S1133680FB60FB6823F0F853FB603B681B0603F008
S1133690F853FA681343FB607B68FA681A6100BF49
S11336A01437BD465DF8047B704780B483B000AF27
S11336B078607B681B6943F400327B681A6100BF41
S11336C00C37BD465DF8047B704780B483B000AF0F
S11336D078600B46FB707B681B6923F40052FB780F
S11336E05B031A437B681A6100BF0C37BD465DF863
S11336F0047B704780B483B000AF78600B46FB70E6
S11337007B681B6923F40002FB78002B02D04FF482
S1133710000300E000231A437B681A6100BF0C37E2
S1133720BD465DF8047B704780B483B000AF786019
S11337300B46FB707B681B6923F40012FB78002B9B
S113374002D04FF4001300E000231A437B681A618F
S113375000BF0C37BD465DF8047B704780B485B06C
S113376000AF78600B46FB707B681C33FB60FB6822
S1133770FA781A7000BF1437BD465DF8047B7047B1
S113378080B483B000AF786039607B68DB69DAB2FB
S11337903B681A7000BF0C37BD465DF8047B704768
S11337A080B485B000AF78604FF47023FB607B6811
S11337B05B6923F0C02323F4F813FA681A437B6887
S11337C05A6100BF1437BD465DF8047B70470000A2
S11337D080B58AB000AFF860B9607A604C4AFB6883
S11337E052F823303B624B4AFB6813441B78FB7747
S11337F007F11002FB7F11461846FFF7B5FCBB68C2
S1133800BB6100237B6207E0BA697B6A1344002230
S11338101A707B6A01337B627B6A332BF4D93E498D
S1133820FB68BA6841F823207B68DA79BB6883F8BF
S113383028207B689A79BB681A757B681A7ABB68FA
S113384083F829207B685A7ABB6883F82A20386A6F
S113385000F082FC7B681B681946F86800F062F887
S11338607B681B79002B07D07B689B790122194662
S1133870386A00F095FC06E07B689B7900221946C3
S1133880386A00F08DFC7B681B791946386A00F0B1
S1133890B6FC7B685B791946386AFFF716FFBB688C
S11338A00022DA85BB6800221A86BB682B3300210C
S11338B0184601F0E5F80346FB82BB682C3300216F
S11338C0184601F0DDF80346BB82FB8A012B02D0C7
S11338D0BB8A012B01D1012315E0104AFB68134474
S11338E093F900000E4AFB6852F82330002219466F
S11338F0FFF7EAFD094AFB68134493F900301846C0
S1133900FFF708FE002318462837BD4680BD00BFD8
S1133910084D0000184D000064000020144D000004
S11339205886FF1F80B58CB000AF78603960464A76
S11339307B6813441B78FB77444A7B6852F8233036
S1133940BB61434A7B6852F823307B617B69002B5F
S11339500DD07B691B7CDBB2002B01D002236EE00F
S11339607B695B7CDBB2002B01D0022367E007F1AB
S11339700802FB7F11461846FFF7F6FB0423BB62DF
S1133980BA683B68B96A01FB03F3B2FBF3F3FB8546
S1133990BA68FB8DB96A01FB03F3B2FBF3F33B6135
S11339A03A693B689A4204D93A693B68D31A3B6244
S11339B003E03A683B69D31A3B620523BB8529E0DF
S11339C0BA68BB8D396801FB03F3B2FBF3F3FB81E7
S11339D0BB68BA8DF98901FB02F2B3FBF2F33B61D8
S11339E03A693B689A4204D93A693B68D31A7B62C4
S11339F003E03A683B69D31A7B627A6A3B6A9A426B
S1133A0005D87B6A3B62BB8DBB62FB89FB85BB8DA2
S1133A100133BB85BB8D202BD2D9BB6A072B02D8BF
S1133A20B869FFF742FEBB6A013B1946B869FFF764
S1133A3020FEFB8D1946B869FFF7FEFD00231846EA
S1133A403037BD4680BD00BF184D0000084D000052
S1133A506400002080B584B000AF78601F4A7B68A2
S1133A6052F82330FB60786800F014F91C49F868B8
S1133A7000F00EFD0346002B09D01A49F86800F047
S1133A8063FD0346002B02D0786800F035F8164930
S1133A90F86800F0FDFC0346002B09D01349F868D0
S1133AA000F052FD0346002B02D0786800F070F855
S1133AB00F49F86800F0ECFC0346002B09D00D49CF
S1133AC0F86800F041FD0346002B02D0786800F04E
S1133AD0B7F800BF1037BD4680BD00BF084D0000D9
S1133AE01500030015000200170003001700020070
S1133AF0160003001600020080B584B000AF7860A1
S1133B00224A7B6852F82330FB60786800F050FA50
S1133B10FB681B7D002B0AD1FB685B685A1CFB68A1
S1133B205A60FB68DB685A1EFB68DA6009E0FB68D0
S1133B305B689A1CFB685A60FB68DB689A1EFB682A
S1133B40DA60FB68DB68002B0AD1FB689B69002BF9
S1133B5006D0FB689B69FA68D2690021F868984727
S1133B60FB68DB68002B0DD1786800F08DF9FB68E9
S1133B709B69002B06D0FB689B69FA68D269022115
S1133B80F868984700BF1037BD4680BD6400002028
S1133B9080B584B000AF7860254A7B6852F8233042
S1133BA0FB60244A7B6852F82330BB60FB689B6847
S1133BB0002B38D0786800F0ABF9FB681B7D002B34
S1133BC00AD1FB681B685A1CFB681A60FB689B6877
S1133BD05A1EFB689A6009E0FB681B689A1CFB6824
S1133BE01A60FB689B689A1EFB689A60FB689B6876
S1133BF0002B18D1FB681B6A002B06D0FB681B6ADC
S1133C00FA68526A0121F8689847FB689B68002BA0
S1133C1009D100220849B86800F0BAFB012207491B
S1133C20B86800F0B5FB00BF1037BD4680BD00BFCB
S1133C3064000020084D0000170003001600030074
S1133C4080B584B000AF7860114A7B6852F82330A5
S1133C50FB60FB689B68002B16D1FB6893F8283047
S1133C60012B03D1786800F0D1F802E0786800F005
S1133C70EDF9FB681B6A002B06D0FB681B6AFA6827
S1133C80526A0221F868984700BF1037BD4680BDCC
S1133C906400002080B584B000AF7860544A7B682B
S1133CA052F82330FB60534A7B6852F82330BB60E0
S1133CB05149B86800F048FC0346002B1ED0FB684D
S1133CC040F201621A86FB6893F82830012B03D175
S1133CD0786800F0D9F802E0786800F0F7F9FB683A
S1133CE09B69002B06D0FB689B69FA68D2690321A3
S1133CF0F8689847B868FFF753FD74E03F49B8681F
S1133D0000F022FC0346002B1ED0FB6840F2036245
S1133D101A86FB6893F82830012B03D1786800F0E9
S1133D20B3F802E0786800F0D1F9FB689B69002BD6
S1133D3006D0FB689B69FA68D2690321F868984742
S1133D40B868FFF72DFD4EE02D49B86800F0FCFB84
S1133D500346002B1ED0FB6840F204621A86FB68FF
S1133D6093F82830012B03D1786800F08DF802E035
S1133D70786800F0ABF9FB689B69002B06D0FB6800
S1133D809B69FA68D2690321F8689847B868FFF715
S1133D9007FD28E01B49B86800F0D6FB0346002B5A
S1133DA01ED0FB6840F205621A86FB6893F828303F
S1133DB0012B03D1786800F067F802E0786800F01E
S1133DC085F9FB689B69002B06D0FB689B69FA6840
S1133DD0D2690321F8689847B868FFF7E1FC02E06C
S1133DE0BB68094A5A6100BF1037BD4680BD00BF99
S1133DF064000020084D00001300020011000200BE
S1133E00100002001200020000C01FC080B584B080
S1133E1000AF7860184A7B6852F82330FB60174A79
S1133E207B6852F82330BB60BB68DB8D9BB2022BEE
S1133E3003D1BB680022DA8504E000221049F86847
S1133E4000F0A6FA00220F49F86800F0A1FA002158
S1133E50F868FFF7A1FBBB6800221A74BB689B7C5F
S1133E60DBB2002B04D0BB682C33184600F0EAFD0B
S1133E7000BF1037BD4680BD084D0000640000201F
S1133E80170003001600030080B586B000AF786009
S1133E901C4A7B6852F823307B611B4A7B6852F8CA
S1133EA023303B6100213869FFF79EFB002138690C
S1133EB000F0A4FB07F10F0319463869FFF760FC13
S1133EC000221249386900F063FA7B69DB7CDBB2BB
S1133ED0002B07D07B692B33184600F0B3FD7B69B8
S1133EE00022DA747B6900225A747B691B8E9BB2B0
S1133EF0022B02D17B6900221A8600BF1837BD4607
S1133F0080BD00BF64000020084D000015000300C0
S1133F1080B586B000AF7860234A7B6852F82330BE
S1133F207B61224A7B6852F823303B617B691B68C2
S1133F30FB607B691B7D002B06D1FB681B7819464F
S1133F403869FFF70BFC2AE07B691B7D012B13D139
S1133F50FB681B787B81FB680133FB60FB681B7883
S1133F609BB21B029AB27B8913437B817B891946DE
S1133F70386900F065F912E0FB681B787B81FB6807
S1133F800133FB60FB681B789BB21B029AB27B89EE
S1133F9013437B817B891946386900F074F900BFAB
S1133FA01837BD4680BD00BF64000020084D0000E6
S1133FB080B586B000AF7860224A7B6852F823301F
S1133FC07B61214A7B6852F823303B617B695B68E3
S1133FD0FB607B691B7D002B04D1F9683869FFF70E
S1133FE0CFFB2AE07B691B7D012B13D107F10A0368
S1133FF01946386900F07CF97B89DAB2FB681A70DB
S1134000FB680133FB607B891B0A9BB2DAB2FB6855
S11340101A7012E007F10A031946386900F088F9AA
S11340207B89DAB2FB681A70FB680133FB607B8919
S11340301B0A9BB2DAB2FB681A7000BF1837BD4680
S113404080BD00BF64000020084D000080B584B02E
S113405000AF78601A4A7B6852F82330FB60194A33
S11340607B6852F82330BB600021F868FFF742FBFD
S1134070BB6893F82A301846FFF742F90022124928
S1134080F86800F085F90021F868FFF785FABB6845
S11340909B7CDBB2002B04D0BB682C33184600F0A9
S11340A0D1FCBB68DB8D9BB2022B02D1BB68002222
S11340B0DA85BB6800221A7400BF1037BD4680BD84
S11340C0084D0000640000201600030080B586B08F
S11340D000AF78601E4A7B6852F823307B611D4A2A
S11340E07B6852F823303B6100217869FFF77CFA42
S11340F00021786900F082FA00217869FFF714FB47
S113410007F10F0319467869FFF73AFB3B6993F807
S113411029301846FFF7F4F83B69DB7CDBB2002B4F
S113412007D03B692B33184600F08CFC3B69002216
S1134130DA743B691B8E9BB2022B02D13B690022CD
S11341401A863B6900225A7400BF1837BD4680BDE9
S1134150084D00006400002080B483B000AF786094
S11341607B680D4A1A617B680C4A5A617B6800229D
S11341709A617B6800221A627B6800225A627B681B
S11341804FF470329A627B680022DA6200BF0C3707
S1134190BD465DF8047B70470400000F00C01FC0DB
S11341A080B485B000AF78600B46FB701346BB70DB
S11341B0FB78FB60BB78002B02D0FB680133FB600B
S11341C0FB68022B06D17B681B6943F000527B68B5
S11341D01A610EE07B689B6923F01002FB681B01E7
S11341E01A437B689A617B681B6923F000527B68E1
S11341F01A6100BF1437BD465DF8047B704780B474
S113420083B000AF78600B46FB707B689B6923F03A
S11342100202FB785B08DBB25B001A437B689A619D
S11342207B689B6923F00102FB7803F001031A43C6
S11342307B689A6100BF0C37BD465DF8047B70470C
S113424080B485B000AF78600B467B807B681C33FC
S1134250FB607B881B0A9BB2DBB203F00103FB7299
S11342607B689B6923F08042FB7A9B071A437B6837
S11342709A617B88DAB2FB681A7000BF1437BD46B6
S11342805DF8047B704780B487B000AF78600B465C
S11342907B807B681C337B617B881B0A9BB2DBB20F
S11342A003F00103FB747B885B0A9BB2DBB203F06F
S11342B00103BB747B689B69FB60FB6823F080424D
S11342C0FB7C9B071343FB60FB6823F00042BB7C31
S11342D0DB071343FB607B68FA689A617B88DAB278
S11342E07B691A7000BF1C37BD465DF8047B7047BC
S11342F080B483B000AF786039607B689B69DB0F62
S11343009BB21B029BB203F480739AB23B681A807F
S11343107B68DB69D9B23B681A888BB213439AB2C3
S11343203B681A8000BF0C37BD465DF8047B7047BC
S113433080B483B000AF786039607B689B699B0F61
S11343409BB25B029BB203F400739AB23B681A807F
S11343507B689B69DB0F9BB21B029BB203F48073E7
S11343609BB23A68128813439AB23B681A807B68FE
S1134370DB69D9B23B681A888BB213439AB23B68A3
S11343801A8000BF0C37BD465DF8047B70470000FF
S113439080B487B000AFF860B9601346FB71BB68A6
S11343A01B0C7B61BB689BB23B617B69013B062BA9
S11343B066D801A252F823F0D543000081440000DE
S11343C0FF430000814400008144000029440000B0
S11343D053440000FB681A6901213B6901FA03F3A5
S11343E0DB431A40FB79002B01D0012100E00021BE
S11343F03B6901FA03F31A43FB681A6141E0FB6865
S11344009A6901213B6901FA03F3DB431A40FB7902
S1134410002B01D0012100E000213B6901FA03F3E4
S11344201A43FB689A612CE0FB685A6A01213B69D4
S113443001FA03F3DB431A40FB79002B01D001217D
S113444000E000213B6901FA03F31A43FB685A6256
S113445017E0FB689A6A01213B6901FA03F3DB4325
S1134460134023F44032FB79002B01D0012100E0FA
S113447000213B6901FA03F31A43FB689A6200E0E6
S113448000BF00BF1C37BD465DF8047B704700BF0A
S113449080B485B000AF786039603B681B0CBB60AA
S11344A00023FB73BB68013B062B45D801A252F8DD
S11344B023F000BFD144000039450000EB44000064
S11344C03945000039450000054500001F4500003E
S11344D07B681B693A6892B2D34003F00103002B56
S11344E014BF01230023FB7327E07B689B693A68B0
S11344F092B2D34003F00103002B14BF0123002325
S1134500FB731AE07B685B6A3A6892B2D34003F0AB
S11345100103002B14BF01230023FB730DE07B6810
S11345209B6A3A6892B2D34003F00103002B14BF94
S113453001230023FB7300E000BFFB7B1846143704
S1134540BD465DF8047B704780B485B000AF7860E9
S113455039603B681B0CBB600023FB73BB68023BE8
S1134560052B43D801A252F823F000BF8545000073
S1134570ED4500009F450000ED450000B9450000F1
S1134580D34500007B685B693A6892B2D34003F07C
S11345900103002B14BF01230023FB7327E07B6876
S11345A0DB693A6892B2D34003F00103002B14BFD5
S11345B001230023FB731AE07B685B6A3A6892B2BA
S11345C0D34003F00103002B14BF01230023FB732A
S11345D00DE07B689B6A3A6892B2D34003F0010312
S11345E0002B14BF01230023FB7300E000BFFB7BFF
S11345F018461437BD465DF8047B704780B582B019
S113460000AF78600B46FB70FB781A460C4978685B
S1134610FFF7BEFEFB781A460A497868FFF7B8FE32
S1134620FB781A4608497868FFF7B2FEFB781A4609
S113463006497868FFF7ACFE00BF0837BD4680BD69
S11346401B000300180003001A00030019000300F4
S113465080B500AF0020FFF7FDF900BF80BD80B535
S113466000AF0120FFF7F6F900BF80BD80B500AFB1
S11346700220FFF7EFF900BF80BD80B483B000AF24
S1134680786039607B683A681A6000BF0C37BD46B1
S11346905DF8047B704780B584B000AF7860396002
S11346A00023FB600DE0FA6813465B001344DB0053
S11346B01A463B681344184600F0AEF8FB68013311
S11346C0FB60FA687B689A42EDD3002318461037E2
S11346D0BD4680BD80B582B000AF7860396039686E
S11346E07868FFF7CAFF00BF0837BD4680BD80B4B5
S11346F087B000AFF860B9601346FB71FB681B68B4
S11347007B610122BB6802FA03F3DB437A6913403D
S11347107B61FA79BB6802FA03F37A6913437B611C
S1134720FB687A691A6000BF1C37BD465DF8047BDC
S11347307047000080B487B000AFF860B9607A6059
S1134740FF237B61FB68324A934245D1BB68102B3F
S113475056D801A252F823F09D470000A747000055
S11347600148000001480000014800000148000021
S11347700148000001480000014800000148000011
S1134780014800000148000001480000B147000052
S1134790BB470000C5470000CF4700007B6843F0DB
S11347A001037B612DE07B6843F002037B6128E019
S11347B07B6843F004037B6123E07B6843F00803D8
S11347C07B611EE07B6803F00E037B6119E07B686C
S11347D003F00D037B6114E0FB680E4A934210D191
S11347E0BB68002B02D0012B05D00AE07B6803F0E4
S11347F00B037B6105E07B6803F007037B6100E04A
S113480000BF7B6918461C37BD465DF8047B7047C2
S113481000A0044000B0044080B588B000AF7860C8
S11348207B681B687A68526853F82230FB617B68A6
S11348301B7A012B09D0022B10D0002B00D016E0DC
S1134840FB6923F00203FB6111E0FB6923F0010320
S1134850FB61FB6943F00203FB6108E0FB6943F081
S11348600203FB61FB6943F00103FB6100BFFB69C9
S113487023F01003FB617B685B7A1B0103F01003D8
S1134880FA691343FB61FB6923F04003FB617B6816
S11348909B7A9B0103F04003FA691343FB61FB69B4
S11348A023F4E063FB617B68DB7AFB75FB7D082BFB
S11348B020D1534B5B6803F00F033B617B6818689E
S11348C07B685B683A691946FFF734FFF860FB6858
S11348D0FF2B0DD04A4A4A4B5B6823F00F03536009
S11348E04749474B5A68FB6803F00F0313434B6077
S11348F00023FB75FB7D1B0203F4E063FA69134399
S1134900FB61FB6923F40043FB617B681B7BDB03D6
S11349109BB2FA691343FB61FB6923F47023FB61C7
S11349207B685B7B1B0403F47023FA691343FB610C
S11349307B689B7B002B07D0FB6923F08073FB61B2
S1134940FB6943F08073FB617B681B687A6852687B
S1134950F96943F822107B681B68D3F8C030BB6048
S11349607B685B68012202FA03F3DB43BA681340F5
S1134970BB607B68DB7B1A467B685B6802FA03F3E7
S1134980BA681343BB607B681B68BA68C3F8C0206D
S11349907B68DB7A012B2ED17B681B695B69BB6169
S11349A07B681B7D002B02D0012B0AD012E07B68B0
S11349B05B68012202FA03F3DB43BA691340BB616B
S11349C008E07B685B68012202FA03F3BA691343C7
S11349D0BB6100BF7B681B7D012B08D17B68186914
S11349E07B6859687B685B7D1A46FFF780FE7B68AD
S11349F01B69BA695A6100BF2037BD4680BD00BF3C
S1134A000080044080B400AF044B1B680133034AA8
S1134A10136000BFBD465DF8047B70477000002042
S1134A2080B500AFFFF7EEFF00BF80BD80B500AFDB
S1134A30FEF7A2FD00BF80BD80B500AFFEF784FD88
S1134A4000BF80BD80B584B000AF78600023FB81D7
S1134A50FFF7ECFF7B681B78DBB2FF2B07D07B688A
S1134A601B78DBB20133DAB27B681A7001E00123F0
S1134A70FB81FFF7E1FFFB8918461037BD4680BD77
S1134A8080B582B000AF78600B46FB70FFF7CEFFB5
S1134A907B68FA781A70FFF7CFFF002318460837AF
S1134AA0BD4680BD80B500AF00230C4A01210C48EF
S1134AB0FEF77EFA00210020FEF79CFA09490A203D
S1134AC0FFF7E9FD084A09490120FEF781FE48F293
S1134AD001010748FFF7FEFDF9E700BF00000020D1
S1134AE0C484FF1FC884FF1FF44A00000400002090
S1134AF0C0F00F4000C201000000000100000000EF
S1134B0000000000000000000000000000000000A1
S1134B100000000000000000000000000000000091
S1134B200000000000000000000000000000000081
S1134B300000000000000000000000000000000071
S1134B400000000000000000000000000000000061
S1134B500000730032002100610049004A004B004C
S1134B604C004D003D000000240025002B003600C1
S1134B703100000020000000380039003A0026000F
S1134B8000003B0027005A00660037002C002D006F
S1134B902E0040006A006B006C0000000000000062
S1134BA00000000000000000000000000000000001
S1134BB000000000000000000000000000000041B0
S1134BC041414141000000000020202020202020FD
S1134BD02020200040404040400080004848484891
S1134BE0003030303030303030363030300000007B
S1134BF000000100010300010102010100000100A5
S1134C000103000101020101000000000000000096
S1134C100000000000B4C404006CDC02B0F3960190
S1134C2000B4C404006CDC02B0F3960100B4C40404
S1134C30006CDC02B0F396010000000000000000EC
S1134C400000000000000000000000000000000060
S1134C5000B4C404005A6202B0F3960100000000DC
S1134C60000000000000000000093D0000093D00B4
S1134C7040420F0000093D0000093D0040420F0082
S1134C8000093D0000093D0040420F000000000003
S1134C900000000000000000000000000000000010
S1134CA00000000000093D0000093D0040420F00E3
S1134CB000000000000000000000000000FCAC0642
S1134CC0007E5603003FAB0100FCAC06007E560399
S1134CD0003FAB0100FCAC06007E5603003FAB0175
S1134CE000000000000000000000000000000000C0
S1134CF0000000000000000000FCAC06007E56032B
S1134D00003FAB01006CDC0200A0064000B006408E
S1134D1000C006401F2123004A4B4C00F8B500BFD9
S1074D20F8B500BF1F
S1134D24410102000042010200002B010000003C8A
S1134D34010300003D010200003E010200003F01A6
S1134D440200004A010200004B010200004C01026F
S1134D5400002D010000002E010000002F010000BE
S1134D6400300100000031010000000001010101D4
S1134D7401010000010100000100010000127A0099
S1134D8400010003010100000001000000000C0008
S1134D940101000001000000000000000100000007
S1134DA403010101000303000102030100060001E1
S1134DB401000000010000010100000001000000E6
S1134DC400000000000000000000000001010101D7
S1134DD401010101000000000F0000000084FF1F16
S1134DE4010100004C84FF1F00C0044001000000C6
S1134DF40200010100000000C0F00F4001010000A6
S1134E0400C0044000000000020001010000000092
S1134E14C0F00F400101000000C004401000000075
S1134E240200010100000000C0F00F400101000075
S1134E3400C004400F000000020001010000000053
S1134E44C0F00F400101000000B004400200000063
S1134E540000000001000000000000000000000049
S1134E6400A0044002000000020000010000000051
S1134E7440F00F400000000000B004400D000000AA
S1134E84020000010000000080F00F400000000058
S1134E9400B004400C000000020000010000000007
S1134EA480F00F400000000000B004400700000040
S1134EB402000002000000000000000000000000E6
S1134EC400B00440060000000200000200000000DC
S1134ED40000000000000000410102000042010241
S1134EE4000029010000002A010000002B01000039
S1134EF4002C010000003401000000350100000012
S1134F04360100000043010200003A010000003CA5
S1134F14010200003D010200003E010200003F01C5
S1134F24020000440102000045010200004601029F
S1134F340000470102000048010200004901020088
S1134F44004A010200004B010200004C010200006F
S1134F54370100000038010000002D010000002E7C
S1134F64010000002F0100000030010000003101A5
S1134F740000003201000000514600005F460000BA
S1074F846D46000072
S9030411E7
