S00C0000544553542E73726563D8
S1130000007000201104000059040000590400008D
S113001059040000590400005904000000000000C5
S1130020000000000000000000000000590400006F
S113003059040000000000005904000059040000A5
S11300405904000059040000590400005904000038
S11300505904000059040000590400005904000028
S11300605904000059040000590400005904000018
S11300705904000059040000590400005904000008
S11303F0590400005904000059040000FFFFFFFFE6
S1130400FFFFFFFFFFFFFFFFFFFFFFFFFE7FFFFF79
S113041072B64FF000014FF000024FF000034FF0AE
S113042000044FF000054FF000064FF00007B846F7
S1130430B946BA46BB46BC4604488546044880478C
S11304400448804762B601F015F8FEE7007000200A
S11304505D04000099040000FFF7FEBF4FF0E023A5
S1130460D3F8882D42F47002C3F8882DD3F8342FC2
S113047022F08042C3F8342F054B064A5A605A686A
S113048042F220121A604FF6FF729A60704700BF62
S11304900020054020C528D9264B274A9A4208D077
S11304A013462448254A13F8011B02F8011B9842FD
S11304B0F9D1234B234A9A4208D013462048224AB2
S11304C013F8011B02F8011B8342F9D11F4B204A88
S11304D09A4206D0134600211C4A03F8011B93429A
S11304E0FBD11C4B1C4A9A4208D0134619481B4A9C
S11304F013F8011B02F8011B8342F9D1184B194A66
S11305009A4212D010B4184CA40808D019460023FB
S113051051F8040B42F8040B0133A342F8D1134BF6
S1130520104A1A605DF8044B7047104B0C4A1A606D
S1130530704700BF24180000441600000084FF1F09
S11305402418000024180000E085FF1F2C00002060
S113055000000020241800002418000000000020DF
S1130560000000000080FF1F0004000008ED00E010
S1130570074B5B69DBB2042B06D0802B06D0012B22
S11305800CBF0120042070470220704703207047ED
S113059000E00740044BD3F8003113F0807F1ABF0A
S11305A0024B1868002070470040064024000020D9
S11305B010B584B00B4600293BD0444AD2F8002140
S11305C012F0007F7DD1414AD2F8001121F40001DC
S11305D0C2F800114FF08061C2F8001100213C4ABA
S11305E01160002870D05A7A120202F4E062197A7B
S11305F001F007010A433548C0F80421DA791201F1
S113060002F030029979C90001F008010A435979CE
S1130610890001F004010A43C0F808211A79012A6B
S113062029D0E2B1022A32D01A68294B1A60294C27
S11306303BE000238DF804308DF80C3001228DF856
S113064008208DF809208DF805208DF80630022346
S11306508DF8073004AB204A43F8102DADE71A7B20
S1130660002A14BF4FF40002002242F0010217498D
S1130670C1F80021D8E71A7B002A14BF4FF4000206
S1130680002242F001121149C1F80021CCE71A7B83
S1130690002A14BF4FF403024FF4403242F0010227
S11306A00A49C1F80021BFE7013CFFF773FF18B9FD
S11306B0002CF9D1032005E0002C14BF00200320F6
S11306C000E0022004B010BD0020FBE7004006401B
S11306D02400002088E7300000127A00084BD3F889
S11306E0003213F0807F09D0054BD3F8083203F0B1
S11306F00103002B034808BF002070470020704707
S11307000040064000127A0010B582B00B46002962
S113071038D02D4AD2F8002212F0007F4FD12A4A55
S1130720D2F8001221F40001C2F800120021C2F82C
S11307300012002846D09A78120202F4E062597836
S113074001F007010A432049C1F804221A7802F093
S11307500102C1F8082259799A791B79002B14BF38
S113076003230123002914BF042100210B43002A81
S113077014BF4FF4000200221343134AC2F800329C
S1130780642410E000238DF8043001228DF8052044
S11307908DF806308DF801208DF8022002AB03F8A5
S11307A0082DB6E7013CFFF799FF18B9002CF9D1E1
S11307B0032005E0002C14BF0020032000E00220E9
S11307C002B010BD0020FBE700400640054BD3F803
S11307D0003313F0807F1DBF024BD3F80833024867
S11307E00020704700400640006CDC0210B582B067
S11307F00B46002932D0294AD2F8002312F0007F98
S113080047D1264AD2F8001321F40001C2F800139C
S11308104FF08061C2F8001300283DD09A7812028C
S113082002F4E062597801F007010A431B49C1F858
S113083004231A7802F00302C1F808239A795B7939
S1130840002B14BF01230923002A14BF4FF4000214
S113085000221343C1F8003314240EE001238DF861
S1130860053000228DF806208DF801308DF8023015
S113087002AB03F8082DBEE7013CFFF7A7FF18B948
S1130880002CF9D1032005E0002C14BF0020032024
S113089000E0022002B010BD0020FBE7004006404B
S11308A008B50F4BD3F8003613F0807F02D1002334
S11308B0184608BDFFF76EFE03460028F8D0084925
S11308C0D1F80826C2F302220132B0FBF2F3D1F8C8
S11308D00826C2F30442103203FB02F35B08E7E785
S11308E00040064010B584B00C4699B13D4BD3F896
S11308F0003613F0007F72D13A4BD3F8002622F46D
S11309000002C3F800264FF08062C3F80026A0B9A5
S1130910002065E000238DF804308DF80B300122AF
S11309208DF808208DF809208DF8053007228DF800
S113093006208DF8073001ACD8E7FFF72BFE63796A
S11309401B0203F4E063227902F0070213432549F2
S1130950C1F8043663781B0203F4E063A27812043E
S113096002F4F8121343C1F808362378012B16D089
S11309704BB1022B1FD04FF47A74FFF791FF48BBA1
S113098034B3013CF9E7E379002B14BF4FF40003BF
S1130990002343F00103134AC2F80036EBE7E3797E
S11309A0002B14BF4FF40003002343F001130D4A3E
S11309B0C2F80036DFE7E379002B14BF4FF40303DA
S11309C04FF4403343F00103064AC2F80036D2E73D
S11309D0032005E0002C14BF0020032000E00220C7
S11309E004B010BD004006402DE9F04180460D469C
S11309F08C7801344E7806FB04460F7807FB0447D5
S1130A00CB78013B052B1CD8DFE803F00312151B40
S1130A101B18FFF7BFFD0009B8F1020F4AD0B8F167
S1130A20030F7BD0B8F1010F0DD00020BDE8F08199
S1130A30FFF754FEEFE7FFF7C9FEECE7FFF730FFDF
S1130A40E9E70020E7E7EA7802EB42015B4B53F861
S1130A5021301B0904FB03F4A04200F293800B46EF
S1130A60564901EB83035B681B0906FB03F6B0429E
S1130A7000F28B8002EB420301EB83039B681B09AA
S1130A8007FB03F7B84200F28380AB781B0403F43E
S1130A907023120602F0706213432A7802F00F02E8
S1130AA013436A781201D2B21343454A53610020BA
S1130AB0BDE8F081EA7802EB4201424B53F8213061
S1130AC01B0904FB03F4A04265D80B463D4901EB26
S1130AD083035B681B0906FB03F6B0425ED802EB96
S1130AE0420301EB83039B681B0907FB03F7B8422E
S1130AF057D8AB781B0403F47023120602F070621B
S1130B0013432A7802F00F0213436A781201D2B217
S1130B1013432B4A93610020BDE8F081EB7803EB8B
S1130B204301294A52F82120120904FB02F4A0428D
S1130B303AD80A46244901EB82025268120906FB9C
S1130B4002F6B04233D803EB430201EB820292680F
S1130B50120907FB02F7B8422CD8AA78120402F44F
S1130B6070221B0603F0706313432A7802F00F020D
S1130B7013436A781201D2B21343114AD36100209D
S1130B80BDE8F0810120BDE8F0810120BDE8F081DD
S1130B900120BDE8F0810120BDE8F0810120BDE81D
S1130BA0F0810120BDE8F0810120BDE8F081012041
S1130BB0BDE8F0810120BDE8F08100BF941500007C
S1130BC000400640E81500004015000038B5054611
S1130BD0FFF7CEFC2946FFF707FF044658B9E8782B
S1130BE00A220849013A0B69C3F30363984204D00B
S1130BF0002AF7D10324204638BD002A08BF032465
S1130C00F9E700BF00400640F0B5A1B028B30446A0
S1130C100646002800F0FF80644B1B69C3F303639E
S1130C20032B00F0C980FFF7D1FD002800F0B48049
S1130C3003238DF8073000228DF8062001228DF859
S1130C40052020A800F87C3DFFF7C0FF05460028DA
S1130C5000F0B280284621B0F0BD01238DF80B309E
S1130C6000228DF80C208DF80D308DF80E208DF8B3
S1130C7008308DF809308DF80A308DF816308DF86B
S1130C8014308DF815208DF80F208DF810308DF864
S1130C9011308DF838300D928DF825304449069185
S1130CA08DF81C208DF824208DF81D308DF81E2021
S1130CB002208DF81F008DF820308DF821308DF83A
S1130CC030308DF828208DF82F208DF829200C2124
S1130CD08DF82A108DF82B208DF82C308DF82D30BE
S1130CE08DF83D3003218DF83C108DF84B308DF894
S1130CF041108DF840208DF83F308DF83E308DF84E
S1130D0045008DF844308DF843208DF842100620BC
S1130D108DF849008DF848208DF847308DF846103D
S1130D2024491E9120211D918DF84C308DF84D20C1
S1130D308DF84E208DF84F208DF850308DF85430BA
S1130D408DF853308DF852208DF851208DF868308D
S1130D508DF869308DF86A308DF86B308DF86C3011
S1130D608DF86D308DF873308DF8583017921892D5
S1130D7019928DF86E308DF86F308DF870208DF8E3
S1130D8071208DF872208DF87C308DF87D308DF8CF
S1130D907E2002AE34463FE700210120FFF726FD06
S1130DA0054600287FF456AF42E700BF00400640E6
S1130DB000127A004085FF1F3146E078FFF7A4FC5B
S1130DC00546002800F02381FFF7D2FB022800F03B
S1130DD05881032800F05881012800F03281002D49
S1130DE07FF438AF94F8303013B1E26AA84B1A603C
S1130DF094F8353053B1A7490A6A22F0706294F826
S1130E0034301B0603F0706313430B6294F84330D1
S1130E10002B40F0A68114F16C0F35D0236F002B0A
S1130E2032D0E36E83B300219B489C4D01EB8102D9
S1130E30236F9B5C30F813309B0003F1804303F570
S1130E40CA231E6826F080461E60236F9F189E5C8E
S1130E50BB781B0603F0E063FA78D20002F00802C4
S1130E6013433A7902F0070213437A78002A14BF35
S1130E704FF080420022134330F8162045F8223008
S1130E800131E36E9942D1D394F84430C3B194F85C
S1130E90463094F847208249496821F47F6194F8E8
S1130EA04500002814BF4FF4006000201B01DBB292
S1130EB0120202F4E06213430B430343784A536083
S1130EC094F84830DBB194F84A3094F849207449D6
S1130ED0096921F03F0194F84C00084394F84B1041
S1130EE0002914BF022100219B0003F00C030343DB
S1130EF0120102F0300213430B43694A136194F860
S1130F006030002B37D0664B196C21F0010194F846
S1130F1061200A431A641B6C23F0020394F86220D4
S1130F20002A14BF0222002213435D4A1364136C87
S1130F3023F0040394F86320002A14BF042200223F
S1130F401343574A1364136C23F0080394F8642082
S1130F50002A14BF082200221343514A1364136C5D
S1130F6023F0100394F86520002A14BF10220022F5
S1130F7013434B4A136494F8503033B1494B626DB8
S1130F801A60A26D5A60E26D9A6094F86630EBB113
S1130F90434A936E00209066516821F4805194F87E
S1130FA068301B0303F480530B435360906694F83A
S1130FB067305BB194F869305B0003F00E0394F87A
S1130FC06A2042F080521343354A936694F8743091
S1130FD0002B00F0E28034498B7803F07F0394F80F
S1130FE0752082F0010243EAC213DBB28B7094F9DC
S1130FF07630002BBCBF20335BB22B490A7903F057
S11310001F0302F0E00213430B71002522E604F1F2
S11310101001607FFFF7CCFA054600287FF4D4AEB8
S113102004F1200194F82800FFF75CFC0546FFF763
S11310309FFA022825D0032826D0012801D00026B3
S113104001E004F13606002D7FF4C9AEF378032BDA
S11310502CD08DF80730B3788DF8063073788DF87E
S11310600530337820A800F87C3DFFF7AFFD054636
S113107000287FF4B4AEE11DA07BFFF7B7FB054663
S1131080ADE604F13A06DEE704F13E06DBE700BF15
S11310900400002000400640A01400000050064058
S11310A0008004400800002000D0074094F8283055
S11310B00BBB637F93BBE378002B42D10125002D4A
S11310C07FF48DAEE11DA07BFFF790FB0546002861
S11310D07FF485AEF3788DF80730B3788DF8063059
S11310E073788DF80530337820A800F87C3DFFF73D
S11310F06DFD054673E606238DF8073002238DF84F
S1131100063001238DF8053020A800F87C3DFFF758
S11311105DFD0546637F7BB10128D0D101238DF8A5
S1131120073000228DF806208DF8053020A800F83D
S11311307C3DFFF74BFD0546E378002BBFD0012D26
S1131140BDD102238DF8073000238DF806308DF8C9
S1131150053020A8012300F87C3DFFF737FD054644
S1131160ADE704F136010120FFF73EFC05460028F7
S11311707FF470AD04F13A010220FFF735FC054617
S113118000287FF467AD04F13E010320FFF72CFC37
S1131190054600287FF45EAD3DE600255AE500BF14
S11311A010B4054C20602171A26023736373002086
S11311B05DF8044B704700BF14000020F0B583B005
S11311C007460E468DF804008DF8051000F078F8F7
S11311D0334B1C7B5C7301238DF80630002C4AD002
S11311E000242F4D04E00134E4B22B7BA34242D906
S11311F0AB6853F82430002BF5D01A79022AF2D0C8
S11312001A68996801A890470028ECD06C73002EE6
S1131210E9D140F2031500238DF80630A400204ED6
S113122020E00134E4B23B7BA34212D9BB6853F8FB
S11312302430002BF5D01A79012AF2D01A68996863
S113124001A890470028ECD07C73002EE9D14FF41C
S1131250827500F027F8284603B0F0BD043C14F171
S1131260040FF6D0B3681B59002BF7D01A6899689D
S113127001A89047F2E70A4D2B6853F82700FFF7BF
S1131280C3FC6F7105460028C5D102238DF80630D2
S1131290034B1B7B002BDCD00024014FC6E700BFAF
S11312A014000020054B1B68002B04DD013B034A9E
S11312B01360002B00DD704762B6FCE728000020B5
S11312C072B6024A13680133136070472800002085
S11312D060B170B506460C460025204600F040F883
S11312E001351834AE42F8D1002070BD002070479B
S11312F0194B984204D0194B984220D0FF207047D4
S1131300102927D8DFE801F0090C262626262626F0
S113131026262626260F1215180042F001007047D3
S113132042F00200704742F00400704742F00800A7
S1131330704702F00E00704702F00D00704719B1BB
S1131340012904D0FF20704702F00B00704702F01F
S113135007007047FF20704700A0044000B004401D
S113136038B504460068616850F82120237A012BBF
S11313703FD0002B3AD0022B40D0657A2D0105F0E6
S1131380100322F050051D43A37A9B0103F0400390
S11313902B4323F4E065E37A082B32D01B0203F4D9
S11313A0E0632B43227BD20392B223F478231343CA
S11313B0627B120402F470221343A27B0AB143F04D
S11313C080732268616842F821302168D1F8C02016
S11313D060680123834022EA0302E37B83401343D2
S11313E0C1F8C030E37A012B21D038BD22F00202CB
S11313F0C3E722F0010242F00202BEE742F0030218
S1131400BBE71B4B5A6802F00F02FFF771FFFF287E
S11314100BD0174B5A6822F00F025A605A6800F03A
S11314200F00104358600023B8E70023B6E7216992
S11314304B69227D22B1012A0AD0012A05D10BE091
S1131440616801228A4023EA020322695361CCE7DE
S11314506068012282401343656808680122AA403B
S113146020EA0200627DAA4002430A60EDE700BF61
S11314700080044008B50023064A01210648FFF70E
S11314808FFE00210846FFF799FE04490720FFF765
S11314901FFFFEE7000000207884FF1F9884FF1FD1
S11314A00000000000000000000000000000000038
S11314B00000000000000000000000000000000028
S11314C00000000000000000000000000000000018
S11314D00000000000000000000000000000000008
S11314E000000000000000000000000000000000F8
S11314F00000730032002100610049004A004B00E3
S11315004C004D003D000000240025002B00360057
S11315103100000020000000380039003A002600A5
S113152000003B0027005A00660037002C002D0005
S11315302E0040006A006B006C00000000000000F8
S113154000000000000000000000000000FCAC06E9
S1131550007E5603003FAB0100FCAC06007E560340
S1131560003FAB0100FCAC06007E5603003FAB011C
S11315700000000000000000000000000000000067
S1131580000000000000000000FCAC06007E5603D2
S1131590003FAB010000000000000000000000005C
S11315A000B4C404006CDC02B0F3960100B4C404BB
S11315B0006CDC02B0F3960100B4C404006CDC02DD
S11315C0B0F39601000000000000000000000000DD
S11315D000000000000000000000000000B4C4048B
S11315E0005A6202B0F396010000000000000000FF
S11315F00000000000093D0000093D0040420F00CA
S113160000093D0000093D0040420F0000093D0073
S113161000093D0040420F000000000000000000EF
S113162000000000000000000000000000000000B6
S113163000093D0000093D0040420F00F8B500BF1D
S1071640F8B500BF36
S11316440101010101010000010100000100010088
S113165400127A00000100030101000000010000EF
S113166400000C0001010000010000000000000063
S1131674010000000301010100030300010203014E
S11316840006000101000000010000010100000047
S11316940100000000000000000000000000000041
S11316A40101010101010101000000000500000025
S11316B47C84FF1F010100000084FF1F2D01000032
S11316C4002E010000002F01000000300100000082
S11316D4310100000000000000C0044001000000CB
S11316E40200010100000000C0F00F4001010000ED
S11316F400C00440000000000200010100000000DA
S1131704C0F00F400101000000C0044010000000BC
S11317140200010100000000C0F00F4001010000BC
S113172400C004400F00000002000101000000009A
S1131734C0F00F400101000000A0044002000000BA
S1131744020000010000000040F00F40000000000F
S113175400B004400D00000002000001000000007D
S113176480F00F400000000000B004400C000000B2
S1131774020000010000000080F00F40000000009F
S11317844101020000420102000029010000002A74
S1131794010000002B010000002C010000003401B2
S11317A4000000350100000036010000004301027E
S11317B400003A010000003C010200003D01020067
S11317C4003E010200003F01020000440102000047
S11317D445010200004601020000470102000048DE
S11317E40102000049010200004A010200004B0109
S11317F40200004C0102000037010000003801001F
S113180400002D010000002E010000002F01000043
S1131814003001000000310100000032010000002A
S9030411E7
