S00C0000544553542E73726563D8
S1130000007000201104000059040000590400008D
S113001059040000590400005904000000000000C5
S1130020000000000000000000000000590400006F
S1130030590400000000000059040000A52B000032
S1130040471E0000511E00005B1E0000651E0000DC
S11300506F1E0000791E0000831E00008D1E00002C
S1130060971E0000A11E0000AB1E0000B51E00007C
S1130070BF1E0000C91E0000D31E0000DD1E0000CC
S1130080E71E000059040000590400005904000050
S113009059040000590400005904000059040000E8
S11300A059040000590400005904000059040000D8
S11300B059040000590400005904000059040000C8
S11300C059040000590400005904000059040000B8
S11303F0590400005904000059040000FFFFFFFFE6
S1130400FFFFFFFFFFFFFFFFFFFFFFFFFE7FFFFF79
S113041072B64FF000014FF000024FF000034FF0AE
S113042000044FF000054FF000064FF00007B846F7
S1130430B946BA46BB46BC4604488546044880478C
S11304400448804762B602F0FBFBFEE70070002020
S1130450110500004D050000FFF7FEBF034613F829
S1130460012B002AFBD1181A013870470000000044
S113047001F0FF01102A2BDB10F0070F08D010F851
S1130480013B013A8B422DD010F0070F42B3F6D155
S1130490F0B441EA012141EA014122F007047FF06E
S11304A000070023F0E80256083C85EA010586EAC5
S11304B0010685FA47F5A3FA87F586FA47F6A5FA01
S11304C087F68EB9EED1F0BC01F0FF0102F007020D
S11304D032B110F8013B013A83EA010313B1F8D1B8
S11304E00020704701387047002D06BF3546033899
S11304F0073815F0010F07D1013015F4807F02BFD2
S1130500013015F4C03F0130F0BC0138704700BF22
S11305104FF0E023D3F8882D42F47002C3F8882DFD
S1130520D3F8342F22F08042C3F8342F054B064A07
S11305305A605A6842F220121A604FF6FF729A60AB
S1130540704700BF0020054020C528D9264B274A04
S11305509A4208D013462448254A13F8011B02F88E
S1130560011B9842F9D1234B234A9A4208D01346DF
S11305702048224A13F8011B02F8011B8342F9D1D7
S11305801F4B204A9A4206D0134600211C4A03F806
S1130590011B9342FBD11C4B1C4A9A4208D01346C0
S11305A019481B4A13F8011B02F8011B8342F9D1B5
S11305B0184B194A9A4212D010B4184CA40808D007
S11305C01946002351F8040B42F8040B0133A342EB
S11305D0F8D1134B104A1A605DF8044B7047104B66
S11305E00C4A1A60704700BF643A0000B03700003C
S11305F00084FF1F643A0000643A0000B486FF1FC1
S11306004C01002000000020643A0000643A00001D
S113061000000020000000000080FF1F0004000014
S113062008ED00E0074B5B69DBB2042B06D0802B9E
S113063006D0012B0CBF0120042070470220704714
S11306400320704700E00740044BD3F8003113F057
S1130650807F1ABF024B1868002070470040064094
S11306605800002010B584B00B4600293BD0444A02
S1130670D2F8002112F0007F7DD1414AD2F8001156
S113068021F40001C2F800114FF08061C2F800119A
S113069000213C4A1160002870D05A7A120202F4F8
S11306A0E062197A01F007010A433548C0F80421D1
S11306B0DA79120102F030029979C90001F00801D7
S11306C00A435979890001F004010A43C0F808215A
S11306D01A79012A29D0E2B1022A32D01A68294BA8
S11306E01A60294C3BE000238DF804308DF80C305F
S11306F001228DF808208DF809208DF805208DF849
S1130700063002238DF8073004AB204A43F8102D3D
S1130710ADE71A7B002A14BF4FF40002002242F016
S113072001021749C1F80021D8E71A7B002A14BF37
S11307304FF40002002242F001121149C1F80021D5
S1130740CCE71A7B002A14BF4FF403024FF4403263
S113075042F001020A49C1F80021BFE7013CFFF75A
S113076073FF18B9002CF9D1032005E0002C14BF45
S11307700020032000E0022004B010BD0020FBE7AD
S1130780004006405800002088E7300000127A003C
S1130790084BD3F8003213F0807F09D0054BD3F80F
S11307A0083203F00103002B034808BF0020704700
S11307B0002070470040064000127A0010B582B055
S11307C00B46002938D02D4AD2F8002212F0007FBF
S11307D04FD12A4AD2F8001221F40001C2F80012C3
S11307E00021C2F80012002846D09A78120202F4BE
S11307F0E062597801F007010A432049C1F8042254
S11308001A7802F00102C1F8082259799A791B7901
S1130810002B14BF03230123002914BF042100214A
S11308200B43002A14BF4FF4000200221343134A5F
S1130830C2F80032642410E000238DF80430012251
S11308408DF805208DF806308DF801208DF80220F2
S113085002AB03F8082DB6E7013CFFF799FF18B97E
S1130860002CF9D1032005E0002C14BF0020032044
S113087000E0022002B010BD0020FBE7004006406B
S1130880054BD3F8003313F0807F1DBF024BD3F820
S1130890083302480020704700400640006CDC0228
S11308A010B582B00B46002932D0294AD2F8002371
S11308B012F0007F47D1264AD2F8001321F4000138
S11308C0C2F800134FF08061C2F8001300283DD035
S11308D09A78120202F4E062597801F007010A439F
S11308E01B49C1F804231A7802F00302C1F8082353
S11308F09A795B79002B14BF01230923002A14BFC2
S11309004FF4000200221343C1F8003314240EE014
S113091001238DF8053000228DF806208DF8013072
S11309208DF8023002AB03F8082DBEE7013CFFF757
S1130930A7FF18B9002CF9D1032005E0002C14BF3F
S11309400020032000E0022002B010BD0020FBE7DD
S11309500040064008B50F4BD3F8003613F0807FF3
S113096002D10023184608BDFFF76EFE0346002897
S1130970F8D00849D1F80826C2F302220132B0FBAC
S1130980F2F3D1F80826C2F30442103203FB02F357
S11309905B08E7E70040064010B584B00C4699B107
S11309A03D4BD3F8003613F0007F72D13A4BD3F8A5
S11309B0002622F40002C3F800264FF08062C3F838
S11309C00026A0B9002065E000238DF804308DF8DE
S11309D00B3001228DF808208DF809208DF80530A0
S11309E007228DF806208DF8073001ACD8E7FFF711
S11309F02BFE63791B0203F4E063227902F0070201
S1130A0013432549C1F8043663781B0203F4E063F9
S1130A10A278120402F4F8121343C1F808362378BA
S1130A20012B16D04BB1022B1FD04FF47A74FFF771
S1130A3091FF48BB34B3013CF9E7E379002B14BFC1
S1130A404FF40003002343F00103134AC2F80036B5
S1130A50EBE7E379002B14BF4FF40003002343F0CA
S1130A6001130D4AC2F80036DFE7E379002B14BF07
S1130A704FF403034FF4403343F00103064AC2F832
S1130A800036D2E7032005E0002C14BF0020032029
S1130A9000E0022004B010BD004006402DE9F04102
S1130AA080460D468C7801344E7806FB04460F7858
S1130AB007FB0447CB78013B052B1CD8DFE803F088
S1130AC00312151B1B18FFF7BFFD0009B8F1020F35
S1130AD04AD0B8F1030F7BD0B8F1010F0DD000203C
S1130AE0BDE8F081FFF754FEEFE7FFF7C9FEECE73E
S1130AF0FFF730FFE9E70020E7E7EA7802EB42017D
S1130B005B4B53F821301B0904FB03F4A04200F2B1
S1130B1093800B46564901EB83035B681B0906FB74
S1130B2003F6B04200F28B8002EB420301EB830335
S1130B309B681B0907FB03F7B84200F28380AB787C
S1130B401B0403F47023120602F0706213432A7824
S1130B5002F00F0213436A781201D2B21343454ADA
S1130B6053610020BDE8F081EA7802EB4201424B78
S1130B7053F821301B0904FB03F4A04265D80B464B
S1130B803D4901EB83035B681B0906FB03F6B04296
S1130B905ED802EB420301EB83039B681B0907FB4E
S1130BA003F7B84257D8AB781B0403F4702312063A
S1130BB002F0706213432A7802F00F0213436A783A
S1130BC01201D2B213432B4A93610020BDE8F08195
S1130BD0EB7803EB4301294A52F82120120904FB64
S1130BE002F4A0423AD80A46244901EB8202526830
S1130BF0120906FB02F6B04233D803EB430201EBC1
S1130C0082029268120907FB02F7B8422CD8AA782C
S1130C10120402F470221B0603F0706313432A7853
S1130C2002F00F0213436A781201D2B21343114A3D
S1130C30D3610020BDE8F0810120BDE8F0810120EE
S1130C40BDE8F0810120BDE8F0810120BDE8F0811C
S1130C500120BDE8F0810120BDE8F0810120BDE85C
S1130C60F0810120BDE8F0810120BDE8F08100BFE2
S1130C705836000000400640AC3600000436000040
S1130C8038B50546FFF7CEFC2946FFF707FF0446B3
S1130C9058B9E8780A220849013A0B69C3F3036397
S1130CA0984204D0002AF7D10324204638BD002AF4
S1130CB008BF0324F9E700BF0040064010B504460E
S1130CC01B4B1B69C3F30363013B052B1DD8DFE8F2
S1130CD003F00313161C1C19FFF7B6FC144B1B6915
S1130CE0C3F303430133B0FBF3F0012C0FD0ECB199
S1130CF0022C14D0002010BDFFF74AFDEEE7FFF7E9
S1130D00BFFDEBE7FFF726FEE8E70020E6E7084B28
S1130D101B69C3F303130133B0FBF3F010BD044BA1
S1130D201B6903F00F030133B0FBF3F010BD00BFE8
S1130D300040064008B50F4B1B6AC3F30363062B40
S1130D4015D8DFE803F004080B0E14141100022078
S1130D50FFF7B4FF08BDFFF777FC08BDFFF718FDE8
S1130D6008BDFFF78DFD08BDFFF7F4FD08BD0020A9
S1130D7008BD00BF0040064008B541B1012931D08B
S1130D800020024610B1431E22FA03F008BD0438C5
S1130D90032852D8DFE800F00B02141DFFF770FDA2
S1130DA00246294BD3F8040300F00700EAE7FFF7F3
S1130DB0EFFC0246244BD3F8040200F00700E1E7FD
S1130DC0FFF742FC0246204BD3F8040100F0070071
S1130DD0D8E7FFF7BFFD02461B4BD3F8040600F02B
S1130DE00700CFE7043803282AD8DFE800F00B0215
S1130DF0141DFFF745FD0246134BD3F80403C0F35B
S1130E000220BFE7FFF7C4FC02460F4BD3F80402ED
S1130E10C0F30220B6E7FFF717FC02460A4BD3F8EB
S1130E200401C0F30220ADE7FFF794FD0246064B30
S1130E30D3F80406C0F30220A4E700200246A1E789
S1130E40002002469EE700BF0040064008B5114B53
S1130E501B69C3F30113032B19D8DFE803F002075E
S1130E60101300210620FFF787FF08BD094B1869FE
S1130E7000F00200002818BF4FF4FA4008BD064BEA
S1130E80186808BD00210520FFF776FF08BD002083
S1130E9008BD00BF008004403800002038B51C4B5A
S1130EA033F810309B0003F1804303F5CA231D6817
S1130EB0C5F3C0051C6804F00704AC4225D31868C8
S1130EC0C0F3807010B31B68C3F30263013B052BAE
S1130ED019D8DFE803F0030C101818140620FFF7E4
S1130EE04BFF0134B0FBF4F005FB000038BD0420D7
S1130EF0FFF742FFF5E70520FFF73EFFF1E7072084
S1130F00FFF73AFFEDE70020EBE7002038BD00BF14
S1130F10643500000F4B1B69C3F38103022B07D018
S1130F20032B0ED0002B0CBF4FF4FA300020704777
S1130F30084B186900F00200002818BF4FF4FA406B
S1130F407047044B186900F00200002818BF4FF4E2
S1130F50FA4070470080044008B5244B5B6813F4E2
S1130F60006F40D0214B5B68C3F303130E2B09D8E9
S1130F70DFE803F00A080D081208171C20252F08C3
S1130F8029082C00002026E0FFF7D4FE23E00121ED
S1130F900620FFF7F1FE1EE001210420FFF7ECFE1E
S1130FA019E001210520FFF7E7FE14E00020FFF718
S1130FB085FE10E001210720FFF7DEFE0BE0012093
S1130FC0FFF77CFE07E0FFF7A5FF04E0FFF73EFF15
S1130FD001E04FF4FA30054B5B68C3F3022301339D
S1130FE0B0FBF3F008BD002008BD00BF0080044042
S1130FF0F0B5A1B028B304460646002800F0FF80EF
S1131000644B1B69C3F30363032B00F0C980FFF730
S113101037FC002800F0B48003238DF80730002249
S11310208DF8062001228DF8052020A800F87C3DCB
S1131030FFF726FE0546002800F0B280284621B0BE
S1131040F0BD01238DF80B3000228DF80C208DF8B3
S11310500D308DF80E208DF808308DF809308DF89C
S11310600A308DF816308DF814308DF815208DF86F
S11310700F208DF810308DF811308DF838300D9226
S11310808DF82530444906918DF81C208DF82420D4
S11310908DF81D308DF81E2002208DF81F008DF86C
S11310A020308DF821308DF830308DF828208DF8DF
S11310B02F208DF829200C218DF82A108DF82B2053
S11310C08DF82C308DF82D308DF83D3003218DF8BE
S11310D03C108DF84B308DF841108DF840208DF880
S11310E03F308DF83E308DF845008DF844308DF852
S11310F043208DF8421006208DF849008DF84820D1
S11311008DF847308DF8461024491E9120211D91F9
S11311108DF84C308DF84D208DF84E208DF84F20F1
S11311208DF850308DF854308DF853308DF85220AE
S11311308DF851208DF868308DF869308DF86A305B
S11311408DF86B308DF86C308DF86D308DF8733010
S11311508DF858301792189219928DF86E308DF8D8
S11311606F308DF870208DF871208DF872208DF815
S11311707C308DF87D308DF87E2002AE34463FE71A
S113118000210120FFF78CFB054600287FF456AFB1
S113119042E700BF0040064000127A00A485FF1F0A
S11311A03146E078FFF70AFB0546002800F023816A
S11311B0FFF738FA022800F05881032800F058811C
S11311C0012800F03281002D7FF438AF94F83030DC
S11311D013B1E26AA84B1A6094F8353053B1A749A9
S11311E00A6A22F0706294F834301B0603F07063CC
S11311F013430B6294F84330002B40F0A68114F1A2
S11312006C0F35D0236F002B32D0E36E83B30021F3
S11312109B489C4D01EB8102236F9B5C30F813309B
S11312209B0003F1804303F5CA231E6826F0804621
S11312301E60236F9F189E5CBB781B0603F0E0635F
S1131240FA78D20002F0080213433A7902F0070256
S113125013437A78002A14BF4FF0804200221343CC
S113126030F8162045F822300131E36E9942D1D38B
S113127094F84430C3B194F8463094F84720824936
S1131280496821F47F6194F84500002814BF4FF4A5
S1131290006000201B01DBB2120202F4E06213437F
S11312A00B430343784A536094F84830DBB194F815
S11312B04A3094F849207449096921F03F0194F8AF
S11312C04C00084394F84B10002914BF022100215C
S11312D09B0003F00C030343120102F0300213439A
S11312E00B43694A136194F86030002B37D0664B86
S11312F0196C21F0010194F861200A431A641B6CF3
S113130023F0020394F86220002A14BF0222002270
S113131013435D4A1364136C23F0040394F86320AD
S1131320002A14BF042200221343574A1364136C87
S113133023F0080394F86420002A14BF0822002232
S11313401343514A1364136C23F0100394F865207B
S1131350002A14BF1022002213434B4A136494F84A
S1131360503033B1494B626D1A60A26D5A60E26D20
S11313709A6094F86630EBB1434A936E002090660D
S1131380516821F4805194F868301B0303F48053AE
S11313900B435360906694F867305BB194F86930FE
S11313A05B0003F00E0394F86A2042F0805213436A
S11313B0354A936694F87430002B00F0E280344987
S11313C08B7803F07F0394F8752082F0010243EADE
S11313D0C213DBB28B7094F97630002BBCBF203380
S11313E05BB22B490A7903F01F0302F0E0021343B6
S11313F00B71002522E604F11001607FFFF732F93A
S1131400054600287FF4D4AE04F1200194F82800A6
S1131410FFF7C2FA0546FFF705F9022825D003288D
S113142026D0012801D0002601E004F13606002D63
S11314307FF4C9AEF378032B2CD08DF80730B37842
S11314408DF8063073788DF80530337820A800F8CD
S11314507C3DFFF715FC054600287FF4B4AEE11D82
S1131460A07BFFF71DFA0546ADE604F13A06DEE778
S113147004F13E06DBE700BF3800002000400640D0
S11314806435000000500640008004403C00002009
S113149000D0074094F828300BBB637F93BBE378FC
S11314A0002B42D10125002D7FF48DAEE11DA07BE0
S11314B0FFF7F6F9054600287FF485AEF3788DF83A
S11314C00730B3788DF8063073788DF805303378AB
S11314D020A800F87C3DFFF7D3FB054673E60623FE
S11314E08DF8073002238DF8063001238DF805307E
S11314F020A800F87C3DFFF7C3FB0546637F7BB162
S11315000128D0D101238DF8073000228DF8062060
S11315108DF8053020A800F87C3DFFF7B1FB0546A7
S1131520E378002BBFD0012DBDD102238DF8073005
S113153000238DF806308DF8053020A8012300F82B
S11315407C3DFFF79DFB0546ADE704F13601012024
S1131550FFF7A4FA054600287FF470AD04F13A01C0
S11315600220FFF79BFA054600287FF467AD04F1DB
S11315703E010320FFF792FA054600287FF45EAD92
S11315803DE600255AE500BF70B504460D46112816
S113159007D9232840F285804D2840F24F8104204A
S11315A070BD11287AD8DFE800F00913191F242927
S11315B02E33383C41484F565D646B720020FFF770
S11315C07DFB03460020002D00F0AA812B6070BD36
S11315D00120FFF773FB03460020F4E70220FFF726
S11315E06DFB03460020EEE7FFF7B6FC0346002040
S11315F0E9E7FFF7CDF803460020E4E7FFF740F9F9
S113160003460020DFE7FFF71FF803460020DAE770
S1131610FFF7A0F903460020D5E7A84B1B6800207C
S1131620D1E7FFF787FB03460020CCE70021042025
S1131630FFF7A2FB03460020C5E701210420FFF7C2
S11316409BFB03460020BEE700210520FFF794FB27
S113165003460020B7E701210520FFF78DFB034671
S11316600020B0E700210620FFF786FB0346002098
S1131670A9E701210620FFF77FFB03460020A2E72C
S113168000210720FFF778FB034600209BE7012198
S11316900720FFF771FB0346002094E70023042092
S11316A091E7A0F115040E2C00F29980DFE804F014
S11316B00814202B353E434F5A656D767F878F0083
S11316C07F4BDB68C3F30163022B00F28B807D4AFE
S11316D052F82330002024E0794BDB68C3F38163A4
S11316E0022B00F28280774A52F82330002018E05F
S11316F0734BDB68C3F30173022B79D8714A52F838
S1131700233000200DE06E4BDB689B0F022B72D858
S11317106C4A52F82330002003E0FFF71DFC034617
S11317200020002D00F0FC802B6070BDFFF78EFBC5
S113173003460020F5E7644B9B78DB0902D00023C5
S11317401846EEE7FFF7E6FB03460020E9E75E4BA9
S11317509B78DB0952D15A4B1B6913F0010350D11A
S11317600020DEE7584B9B78DB094ED1544B1B69B4
S113177013F002034CD10020D3E7534B9B78DB09D1
S11317804AD14FF4FA330020CBE74D4B1B6CC3F323
S11317900013002B43D14FF48070C2E7484B1B6CFD
S11317A0C3F3C003002B3DD14FF48070B9E7444B21
S11317B01B6CC3F38003C3BB4FF48070B1E7404B91
S11317C01B6CC3F340039BBB4FF48070A9E73C4BF5
S11317D01B6C13F001032ED14FF48070A1E700239A
S11317E004209EE7002318469BE70023184698E749
S11317F00023184695E70023184692E7002318466D
S11318008FE74FF47A7300208BE70023184688E7AC
S11318104FF4FA43002084E70023184681E70023AD
S113182018467EE7002318467BE70023184678E72E
S11318300023184675E70023184672E7242805D8C4
S113184004200023002D6BD02B6070BDA0F1330366
S1131850DBB21A2B07D81D4A22FA03F313F0010F47
S113186018BF0420EDD11A4B33F81420194B53F848
S1131870223013F0804F42D14FF48070E1E7012011
S1131880FFF71CFA002845D100234FF48070D9E7F4
S11318900020FFF713FA0028F6D03BE00220FFF700
S11318A00DFA0028F0D035E016F0080F14D116F028
S11318B0100F19D100234FF48070C3E738000020C3
S11318C0008004403C00002000D007404121000477
S11318D0643500000050064000212046FFF7DEFA80
S11318E0034616F0100F04D001212046FFF7D6FA64
S11318F00346002B14BF00204FF48070A2E7094B6D
S11319001E5D16F0200FBAD116F0400FC0D116F0AC
S1131910800FC3D116F0180FC6D10023184691E7E3
S113192070BD00BF0037000010B4054C2060217169
S1131930A2602373637300205DF8044B704700BFFB
S113194048000020F0B583B007460E468DF8040029
S11319508DF8051000F00EFB334B1C7B5C730123E8
S11319608DF80630002C4AD000242F4D04E00134B9
S1131970E4B22B7BA34242D9AB6853F82430002B4A
S1131980F5D01A79022AF2D01A68996801A890470A
S11319900028ECD06C73002EE9D140F2031500232B
S11319A08DF80630A400204E20E00134E4B23B7BE5
S11319B0A34212D9BB6853F82430002BF5D01A790E
S11319C0012AF2D01A68996801A890470028ECD03F
S11319D07C73002EE9D14FF4827500F0BDFA2846DD
S11319E003B0F0BD043C14F1040FF6D0B3681B59E6
S11319F0002BF7D01A68996801A89047F2E70A4DBE
S1131A002B6853F82700FFF7F3FA6F710546002897
S1131A10C5D102238DF80630034B1B7B002BDCD091
S1131A200024014FC6E700BF4800002008B5FFF7B7
S1131A30ABFD08BD10B4064B1B6853F82040616031
S1131A4053F820309A6000205DF8044B704700BFC3
S1131A505C00002008B5084B1B6853F8203000F0E8
S1131A600F00064A1077D07723B15A6812B1197B58
S1131A709868904708BD00BF5C00002000800040CB
S1131A8038B5054600F00F0400222146094800F04D
S1131A9025F9094B1B6853F8253053B1054A1477CF
S1131AA0D477947701221A735A6812B1197B986813
S1131AB0904738BD008000405C0000202DE9F04FC5
S1131AC087B09DF84070119D0124BC405FFA84FCEE
S1131AD0B5FBFCF60CFB1656002E14BF4FF0010AA2
S1131AE04FF0000A03D0504607B0BDE8F08F0593CD
S1131AF004920391804600F00F06DFF8009131460E
S1131B00484600F0F0F8D9F8003023F08003C9F813
S1131B100030730103F1804202F5004B02F51042DC
S1131B20049810604B4441F21002059898500197B4
S1131B30009700231A463146484600F0F9F8039B03
S1131B40032B12D8DFE803F0022D3D4C002241F2B2
S1131B5004032BF8032064B2A4B2730103F180439D
S1131B6003F5004341F214029C52244C2A463146A8
S1131B70204600F0F5F801223146204600F01EF917
S1131B8004EB461641F21C02B35A1BB243F00203A3
S1131B909BB2B3521A4B1B6853F8283000221A73B5
S1131BA0A1E764B2A4B241F204032BF80340730129
S1131BB003F1804303F50043002141F214029952DA
S1131BC0D3E764B2A4B241F204032BF803407301D7
S1131BD003F1804303F5004341F214029C52C4E72D
S1131BE0002241F204032BF80320730103F1804324
S1131BF003F5004341F214015A52B6E70080004055
S1131C005C00002070B582B00446079D01959DF8E4
S1131C1018500095FFF752FF054610B1284602B050
S1131C2070BD04F00F040F4E089A2146304600F0B0
S1131C30C5F806EB441641F21C03F35A23F00803DB
S1131C401B041B0C9DF82420002A14BF0822002228
S1131C501343640104F1804404F5004441F21C027E
S1131C60A352DBE70080004008B5012200F00F0119
S1131C70024800F033F8002008BD00BF0080004097
S1131C8008B5002200F00F01024800F027F80020F8
S1131C9008BD00BF0080004000F00F00803040010C
S1131CA0014B1950704700BF0080004008B50A4638
S1131CB000F00F01014800F081F808BD00800040E9
S1131CC008B500F00F01024800F0A7F808BD00BFF6
S1131CD00080004000487047008000400AB98176C7
S1131CE07047C176704700EB4111002341F20802AE
S1131CF08B5001F58052136041F204028B5241F281
S1131D0006028B5241F20C028B5041F210028B50AE
S1131D1041F214028B5241F216028B5241F2180224
S1131D208B5041F21C028B5241F21E028B527047BF
S1131D3010B4DB00DCB29DF8083003F00703234342
S1131D4043EAC2239DF80420120202F4E062134322
S1131D509BB2803100EB4111CB805DF8044B70479E
S1131D60036813F0800F13D010B400EB411341F259
S1131D7008041B59002B11DB00EB41131B5913F012
S1131D80804F0BD122F0404200EB4110025112E08F
S1131D9000EB411041F20803C250704700EB4110C0
S1131DA041F20801435823F47F7323F00303C2F381
S1131DB009021A4342505DF8044B704710B400EB1B
S1131DC0411441F21E03E35A13F4004F14D100EB03
S1131DD0411141F21E000B5AC2F30E0203F40043F8
S1131DE013430B5241F216000B5A03F400431A43F7
S1131DF00A525DF8044B704741F21E00235AC2F3A5
S1131E00080203F47E431343235241F21600235A7B
S1131E1003F47E431A432252EBE700EB411241F2F2
S1131E201E03D35A13F4004F07D100EB411041F2C3
S1131E301603C05AC0F30E00704741F21603D05A7D
S1131E40C0F30800704708B50020FFF703FE08BD83
S1131E5008B50120FFF7FEFD08BD08B50220FFF715
S1131E60F9FD08BD08B50320FFF7F4FD08BD08B56A
S1131E700420FFF7EFFD08BD08B50520FFF7EAFDD4
S1131E8008BD08B50620FFF7E5FD08BD08B5072025
S1131E90FFF7E0FD08BD08B50820FFF7DBFD08BD2E
S1131EA008B50920FFF7D6FD08BD08B50A20FFF7DD
S1131EB0D1FD08BD08B50B20FFF7CCFD08BD08B562
S1131EC00C20FFF7C7FD08BD08B50D20FFF7C2FDC4
S1131ED008BD08B50E20FFF7BDFD08BD08B50F20ED
S1131EE0FFF7B8FD08BD38B50020FFF7F3FEC56A5B
S1131EF0002404E06D080134E4B2102C06D015F07F
S1131F00010FF7D02046FFF7BBFDF3E738BD000013
S1131F1072B110B4144600F11003084A52F8233089
S1131F2023601030054B43F820105DF8044B7047D4
S1131F301030024B43F82010704700BF0080FF1F91
S1131F40420900F01F00012303FA00F0014B43F89B
S1131F502200704700E100E0054B1B68002B04DD04
S1131F60013B034A1360002B00DD704762B6FCE7B7
S1131F706000002072B6024A136801331360704790
S1131F806000002010B50F4B53F820301C7C0CB1BE
S1131F90022010BD0C4C54F8200019609A600122F4
S1131FA01A740222DA85836943F400238361836906
S1131FB013F4002FFBD00122044900F064FC00203C
S1131FC010BD00BF6400002050370000170003005C
S1131FD0F0B585B01B4B53F82040237C13B102208D
S1131FE005B0F0BD13460A460646174951F820507D
S1131FF022600027A760012121740220E08594F863
S11320002A00039102930191009705F11C03FFF745
S1132010F9FD32460D4994F82A00FFF70BFD94F8B8
S11320202A00FFF721FEAB6943F40023AB61AB69DF
S113203013F4002FFBD02B6943F400032B61002021
S1132040CEE700BF640000205037000019210000D3
S113205038B5144B53F82040134B53F82050EB8DF4
S11320609BB2022B16D000221049204600F00BFC34
S113207000220F49204600F006FCA36923F4002344
S1132080A361A36913F4002FFBD100232B74AB7C51
S11320901BB938BD0023EB85EAE705F12C0000F0FD
S11320A0B1FDF6E75037000064000020170003007C
S11320B01600030038B5154B53F82040144B53F861
S11320C02050236923F40003236195F82A00FFF7C5
S11320D0D7FD00220F49204600F0D5FBA36923F465
S11320E00023A361A36913F4002FFBD1AB7C43B994
S11320F0EB8D9BB2022B04BF0023EB8500232B74D2
S113210038BD05F12C0000F07DFDF1E750370000EB
S1132110640000201600030038B5194B53F8204022
S1132120184B53F8205001290DD0236A1BB1626A61
S1132130012120469847A3688BB9012212492846F9
S113214000F0A1FB38BD0123E385FFF7B3FF236A49
S1132150002BF7D0626A03212046984738BD2168D6
S113216094F82A00FFF798FDA16894F82A00FFF775
S11321709DFD0023A36094F82A00FFF775FD38BD88
S113218064000020503700001600030008B50E4B11
S113219053F820300D4A52F820001A681B7D43B1D1
S11321A0012B09D01378517843EA012100F042FB56
S11321B008BD1378037708BD1378517843EA0121E9
S11321C000F02DFB08BD00BF640000205037000064
S11321D038B5154B53F82050144B53F82040A369DD
S11321E023F48023A361A36913F4802FFBD100217E
S11321F0204600F0C9FBE36900220D49204600F0A7
S113220042FBEB7C43B900236B742B8E9BB2022BF5
S113221004BF00232B8638BD05F12B0000F0F2FC2F
S11322200023EB74EFE700BF640000205037000088
S11322301500030038B5164B53F82040154B53F8DE
S11322402050A36923F48023A361A36913F4802F8E
S1132250FBD10021204600F097FB236923F40013EF
S11322602361E36995F82900FFF70AFDEB7C43B984
S11322702B8E9BB2022B04BF00232B8600236B748E
S113228038BD05F12B0000F0BDFC0023EB74EFE733
S1132290503700006400002010B582B0134B53F88F
S11322A02030134A52F820005C681B7D73B1012B67
S11322B00FD00DF1060100F0D7FABDF806302370F7
S11322C0BDF806301B0A637002B010BDC3692370E9
S11322D0FAE70DF1060100F0BEFABDF806302370EE
S11322E0BDF806301B0A6370EEE700BF64000020EF
S11322F05037000010B5074B53F8203000249C746D
S113230093F82830012B02D0FFF762FE10BDFFF7CF
S113231039FE10BD6400002038B50C4B53F8204042
S113232089B10D46227C62B194F82820012A05D097
S113233094F82A00FFF7C4FC286004E0A2680A604D
S113234001E000220A60E08D80B238BD6400002004
S1132350314B53F820303BB11A7C0AB1022070474C
S11323605B7C0BB1022070472DE9F04182B00C4632
S11323702A4B53F8205001A9294B185CFFF756FB50
S1132380019E4FEA840CB6FBFCFC1FFA8CFC4FEA5E
S11323908C07B6FBF7F7BC4206D23F1B04EB840163
S11323A005224FF0040805E0E71BF7E7214401325A
S11323B0212A12D09646B6FBF1F083B202FB03F356
S11323C0B6FBF3F39C4234BF1B1BE31ABB42EDD8AC
S11323D01FFA80FC1F469046E8E7B8F1070F03D8C0
S11323E02B6943F400332B612A6922F0F85208F177
S11323F0FF331B0603F0F85313432B612B6923F4BB
S1132400FF5323F01F03CCF30C0C4CEA03032B61A2
S1132410002002B0BDE8F0816400002050370000C5
S11324205C370000F0B583B006460C461546304BC9
S113243053F8207001A92F4B185CFFF7F7FA631EBD
S113244004F13301002203F8012F8B42FBD12A4B04
S113245043F82640EB7984F82830AB7923752B7A3E
S113246084F829306B7A84F82A30384600F09EF9D3
S113247029683046FFF76CFF2B7983B30122A979D1
S1132480384600F0A5F92979384600F0B9F93B69D6
S11324906A7923F4005343EA42333B610025E5851E
S11324A02586294604F12B0000F0BFFB0746294688
S11324B004F12C0000F0B9FB012F16D001280CD038
S11324C00E4B9C572A460E4B53F826102046FFF716
S11324D01FFD2046FFF734FD284603B0F0BD00225F
S11324E0A979384600F074F9CDE73846F5E700BF1E
S11324F0503700005C3700006400002060370000A3
S11325004486FF1FF8B506469B4B53F820409B4B6F
S113251053F820509A49204600F012FA80B340F252
S113252001632B8695F82830012B25D03046FFF720
S113253081FEAB691BB1EA690321284698476369A8
S113254023F0C02323F4F81343F4702363618D490B
S1132550204600F0D0F900287BD18B49204600F0BA
S1132560CAF9002840F0A9808849204600F0C3F940
S1132570002840F0DE80F8BD3046FFF729FED8E79A
S11325808349204600F0DCF9E0B140F203632B8676
S113259095F82830012B11D03046FFF74BFEAB697C
S11325A01BB1EA69032128469847636923F0C023D5
S11325B023F4F81343F470236361C8E73046FFF74C
S11325C007FEECE77349204600F0BAF9E0B140F2A7
S11325D004632B8695F82830012B11D03046FFF781
S11325E029FEAB691BB1EA69032128469847636950
S11325F023F0C02323F4F81343F470236361A6E7A4
S11326003046FFF7E5FDECE76349204600F098F912
S1132610E0B140F205632B8695F82830012B11D0E8
S11326203046FFF707FEAB691BB1EA690321284670
S11326309847636923F0C02323F4F81343F4702309
S1132640636184E73046FFF7C3FDECE7534B6361F6
S11326507DE75349204600F073F900283FF47DAF2D
S1132660464B53F826503046FFF716FE2B7DEBB948
S11326706B6801336B60EB68013BEB60EB682BB973
S1132680AB691BB1EA69002128469847EB68002B27
S11326907FF463AF3046FFF79BFDAB69002B3FF43B
S11326A05CAFEA6902212846984756E76B68023313
S11326B06B60EB68023BEB60E0E73A49204600F0D0
S11326C03FF900283FF450AF2C4B53F82650AB6829
S11326D0002B3FF449AF284B53F826703046FFF7E0
S11326E055FD2B7DF3B92B6801332B60AB68013B9F
S11326F0AB60AB68002B7FF437AF2B6A1BB16A6AFF
S1132700012128469847AB68002B7FF42DAF0022A7
S11327101D49384600F0B7F801221C49384600F03C
S1132720B2F821E72B6802332B60AB68023BAB6045
S1132730DFE71D49204600F003F900283FF41BAFF2
S11327400E4B53F82640A368002B7FF414AF94F883
S11327502830012B0BD03046FFF7ACFC236A002B4A
S11327603FF409AF626A02212046984703E73046E6
S1132770FFF76EFCF2E700BF503700006400002052
S113278013000200150003001700030016000300E5
S113279011000200100002001200020000C01FC05D
S11327A0150002001700020016000200064B036128
S11327B0064B436100238361036243624FF470322A
S11327C08262C362704700BF0400000F00C01FC0D4
S11327D010B40C4602B14C1C022C0CD0836923F0BB
S11327E0100343EA04138361036923F00053036174
S11327F05DF8044B7047036943F000530361F7E746
S1132800826901F0FE0322F00202134383618369AB
S113281023F0010301F001011943816170478369C9
S1132820C1F3002223F0804343EA82738361C9B277
S113283001777047836923F08043C1F3002243EAA0
S1132840827323F00043C1F3402243EAC2738361DD
S1132850C9B2017770478369DB0F1B020B80C26921
S1132860D2B213430B80704783695B0D03F400738A
S11328700B808269D20F43EA02230B80C269D2B271
S113288013430B80704710B48BB2090C013906292D
S11328900ED8DFE801F0040D100D0D1A24000169B3
S11328A001249C4021EA040102FA03F30B4303616F
S11328B05DF8044B7047816901249C4021EA0401BE
S11328C002FA03F30B438361F2E7416A01249C405B
S11328D021EA040102FA03F30B434362E8E7816A45
S11328E001249C4021F4403121EA040102FA03F35B
S11328F00B438362DCE70B0C013B062B1ED8DFE89D
S113290003F0041D0B1D1D111700036988B223FA7F
S113291000F000F001007047806989B2C84000F0FF
S113292001007047406A89B2C84000F00100704756
S1132930806A89B2C84000F00100704700207047E7
S11329400B0C023B052B1DD8DFE803F0031C0A1C0B
S11329501016436988B223FA00F000F001007047B2
S1132960C06989B2C84000F001007047406A89B26A
S1132970C84000F001007047806A89B2C84000F086
S1132980010070470020704738B505460C460A46DA
S11329900949FFF778FF224608492846FFF773FFE5
S11329A0224607492846FFF76EFF22460549284676
S11329B0FFF769FF38BD00BF1B00030018000300C8
S11329C01A0003001900030008B50020FFF79AFD60
S11329D008BD08B50120FFF795FD08BD08B5022024
S11329E0FFF790FD08BD60B170B506460C460025A2
S11329F0204600F04DF801351834AE42F8D10020DD
S1132A0070BD0020704710B4036801248C4023EA91
S1132A1004038A401A4302605DF8044B70470000C7
S1132A20194B984204D0194B984220D0FF2070478C
S1132A30102927D8DFE801F0090C262626262626A9
S1132A4026262626260F1215180042F0010070478C
S1132A5042F00200704742F00400704742F0080060
S1132A60704702F00E00704702F00D00704719B174
S1132A70012904D0FF20704702F00B00704702F0D8
S1132A8007007047FF20704700A0044000B00440D6
S1132A9038B504460068616850F82120237A012B78
S1132AA03FD0002B3AD0022B40D0657A2D0105F09F
S1132AB0100322F050051D43A37A9B0103F0400349
S1132AC02B4323F4E065E37A082B32D01B0203F492
S1132AD0E0632B43227BD20392B223F47823134383
S1132AE0627B120402F470221343A27B0AB143F006
S1132AF080732268616842F821302168D1F8C020CF
S1132B0060680123834022EA0302E37B834013438A
S1132B10C1F8C030E37A012B21D038BD22F0020283
S1132B20C3E722F0010242F00202BEE742F00302D0
S1132B30BBE71B4B5A6802F00F02FFF771FFFF2837
S1132B400BD0174B5A6822F00F025A605A6800F0F3
S1132B500F00104358600023B8E70023B6E721694B
S1132B604B69227D22B1012A0AD0012A05D10BE04A
S1132B70616801228A4023EA020322695361CCE797
S1132B806068012282401343656808680122AA40F4
S1132B9020EA0200627DAA4002430A60EDE700BF1A
S1132BA000800440024A136801331360704700BF79
S1132BB07000002030B583B00446002502A941F816
S1132BC0045D2846FEF732FF0B4A15600B49019B52
S1132BD0A1FB03139B095360956007231360084B03
S1132BE01A681B689B1AA34204D205490B689B1AF6
S1132BF09C42FBD803B030BD10E000E0D34D62101E
S1132C007000002010B50446FFF7B4F92378DBB256
S1132C10FF2B08D023780133DBB223700024FFF7A5
S1132C209BF9204610BD0124F9E738B504460D464A
S1132C30FFF7A0F92570FFF78FF9002038BD0000D9
S1132C4008B50023164A01211648FEF76DFE00213F
S1132C500846FEF777FE14490A20FFF7C4FE134A1C
S1132C6013490120FFF7DEFB124D0F24124E002200
S1132C7021462846FFF7C7FE304600F021F84FF4FE
S1132C807A70FFF797FF012221462846FFF7BBFE23
S1132C900A4800F015F84FF47A70FFF78BFFE6E767
S1132CA0000000207884FF1FB484FF1F5835000003
S1132CB004000020C0F00F40643700006C370000AF
S1132CC00FB410B582B004AA52F8041B00920C4C45
S1132CD0204600F02FF82046FDF7C0FB02462146AF
S1132CE00120FFF707FB012401A92046FFF714FB8D
S1132CF00028F9D102B0BDE8104004B0704700BF0D
S1132D007400002010B59AB04FF40274019105913B
S1132D106FF00041039106914FF6FF71ADF8121068
S1132D2001A9ADF8104000F06BF8019B00221A7065
S1132D301AB010BD13460A46014602480068FFF760
S1132D40E1BF00BF5086FF1F2DE9F0478E689E4209
S1132D5082460C469146984635D88A8912F4906F7B
S1132D6031D0256809696F1A6569022305EB4505A9
S1132D7095FBF3F508F101033B449D4238BF1D4622
S1132D80530531D5294600F039FB064650B90C23CA
S1132D90CAF80030A38943F04003A3814FF0FF3009
S1132DA0BDE8F0873A46216900F0B4FAA38923F418
S1132DB0906343F08003A381266165613E44ED1B6B
S1132DC02660A5604646464528BF464632464946E3
S1132DD0206800F0AAFAA3689B1BA36023681E4422
S1132DE026600020BDE8F0872A4600F065FB064611
S1132DF00028E1D12169504600F0B2FAC7E700008B
S1132E002DE9F04F9DB0804603938B891C060D4637
S1132E1016460FD50B696BB9402100F0EFFA286014
S1132E20286128B90C23C8F800304FF0FF30C5E002
S1132E3040236B610023099320238DF8293030232C
S1132E408DF82A304FF0010B37463C4614F8013B0D
S1132E50002B3CD1B7EB060A0BD053463246294629
S1132E604046FFF771FF013000F0A380099B5344F3
S1132E7009933B78002B00F09C8000234FF0FF3235
S1132E8004930793059206938DF853301A93052201
S1132E9021785048FDF7ECFA671C049BD8B9D90691
S1132EA044BF20228DF853201A0744BF2B228DF8EB
S1132EB0532022782A2A16D0079A00210A2027466E
S1132EC001343B78303B092B51D9C9B111E0252B92
S1132ED0C0D02746B9E73F4A801A0BFA00F01843DE
S1132EE004903C46D3E7039A111D12680391002A0B
S1132EF001DB079204E0524243F002030792049379
S1132F003B782E2B0ED17B782A2B07F1010132D18D
S1132F10039B1A1D1B680392002BB8BF4FF0FF33AD
S1132F20023705932C4C397803222046FDF7A0FA8A
S1132F3038B14023001B03FA00F0049B03430493BD
S1132F400137397825488DF8281006227E1CFDF7B4
S1132F508FFA002835D0224BFBB9039B073323F0AB
S1132F60070308330393099B4B4409936CE700FB65
S1132F7002320121A3E70023059318460A240F46D1
S1132F8001313A78303A092A03D9002BCAD0059086
S1132F90C8E704FB00200123F1E703AB00932A46B2
S1132FA0104B04A94046AFF30080B0F1FF3F8146C7
S1132FB0D9D1AB895B063FF538AF09981DB0BDE8A0
S1132FC0F08F03AB00932A46064B04A9404600F059
S1132FD081F8EAE7743700007A3700007E37000092
S1132FE000000000492D00002DE9F04791461F46DE
S1132FF08A680B69DDF820809342B8BF1346C9F88C
S1133000003091F8432006460C4612B10133C9F84A
S113301000302368990642BFD9F800300233C9F85A
S11330200030256815F0060507D104F1190AE36894
S1133030D9F800209B1A9D4229DB94F8433022687A
S1133040003318BF012392062ED404F143023946FB
S11330503046C047013021D02368E568D9F8002004
S113306003F00603042B08BFAD1AA36822690CBF42
S113307025EAE57500259342C4BF9B1AED184FF06D
S113308000091A344D451BD10020BDE8F087012307
S1133090524639463046C047013003D14FF0FF3025
S11330A0BDE8F0870135C2E7E1185A1C302081F8E9
S11330B04300224494F8451082F843100233C4E7D5
S11330C00123224639463046C0470130E6D009F193
S11330D00109D7E72DE9F04317460A7E85B06E2A29
S11330E0984606460C460C9B01F1430C00F0BC804C
S11330F01AD8632A2ED00AD8002A00F0C880582A89
S113310000F08A8004F1420584F842202AE0642A0F
S113311001D0692AF6D121681A6811F0800F23D0F2
S1133120111D1960136827E0732A00F0B48008D8D1
S11331306F2A2AD0702AE5D10A6842F020020A6078
S113314003E0752A21D0782ADCD1782284F845203E
S11331506E4964E01A6801F14205111D1960136893
S113316084F842300123A3E011F0400F02F104017E
S11331701960D7D0B2F90030002B03DA2D225B425C
S113318084F8432062490A2217E02068196810F085
S1133190800F03D0081D18600B6806E010F0400F84
S11331A001F104001860F7D00B8859496F2A14BF45
S11331B00A220822002084F843006568A560002DD7
S11331C0C0F29C80206820F004002060002B3FD1D6
S11331D0002D40F095806546082A0BD12368DA0754
S11331E008D5236962689A42DEBF302305F8013CA2
S11331F005F1FF35ACEB05032361CDF800803B46B8
S113320003AA21463046FFF7EFFE013055D14FF0B7
S1133210FF3005B0BDE8F08381F845203C492268C1
S1133220186812F0800F00F104051D6001D00368D6
S113323002E05506FBD50388D00744BF42F02002C4
S113324022601BB9226822F0200222601022B1E71A
S11332506546B3FBF2F002FB1033CB5C05F8013D8D
S113326003460028F5D1B7E708681A68496910F0E1
S1133270800F04D0101D18601368196007E010F067
S1133280400F02F1040018601368F6D0198000237F
S113329023616546B1E71A68111D196015686268F3
S11332A000212846FDF7E4F808B1401B606063681C
S11332B02361002384F843309FE723692A46394673
S11332C03046C0470130A2D023689B0707D50025AC
S11332D004F11909E368039A9B1A9D4205DBE0682F
S11332E0039B9842B8BF184693E701234A463946E0
S11332F03046C04701308AD00135EBE7002BA7D117
S11333000B7884F8423004F1420565E796370000F3
S11333108537000010B5431E0A44914200D110BD08
S113332011F8014B03F8014FF7E7884210B501EBA0
S1133330020303D8421E99420CD110BD9842F9D21F
S11333408118D21AD34200D110BD13F8014D01F8EF
S1133350014DF7E711F8014B02F8014FEBE70000CC
S113336038B50546002945D051F8043C0C1F002B04
S1133370B8BFE41800F0D6F81F4A1368104633B9F2
S1133380636014602846BDE8384000F0CCB8A3421E
S11333900CD921686218934204BF1A685B686360A1
S11333A004BF521822600460ECE713465A680AB15D
S11333B0A242FAD919685818A0420BD120680144D6
S11333C0581882421960DDD1106852685A6001446D
S11333D01960D7E702D90C232B60D3E720682118A2
S11333E08A4204BF11685268626004BF09182160F0
S11333F05C60C7E738BD00BF3C01002070B5CD1C40
S113340025F0030508350C2D38BF0C25002D064684
S113341001DBA94203D90C233360002070BD00F006
S113342081F8234A1468214691B9224C23681BB9B8
S1133430304600F067F820602946304600F062F814
S1133440431C26D10C233360304600F06CF8E4E7CB
S11334500B685B1B1AD40B2B0FD90B60CD50CC1807
S1133460304600F060F804F10B00231D20F0070043
S1133470C31A1BD05A42E25070BD8C420DBF636820
S11334804B686360136018BF0C46E9E70C46496853
S1133490CAE7C41C24F00304A04205D0211A304614
S11334A000F030F80130CDD02560D9E770BD00BF01
S11334B03C01002040010020F8B5074614460E46A2
S11334C021B91146BDE8F840FFF798BF22B9FFF7CC
S11334D047FF25462846F8BD00F026F884420FD958
S11334E021463846FFF78AFF05460028F2D03146C8
S11334F02246FFF70FFF31463846FFF731FFE9E771
S11335003546E7E738B5064C0023054608462360F0
S113351000F014F8431C02D1236803B12B6038BDBA
S1133520480100207047704751F8040C0028A0F1AE
S11335300400BCBF0B58C01870470000044B196846
S1133540024609B903491960186802441A607047B1
S1133550440100205001002000C2010000000001CD
S11335600000000000000000000000000000000057
S11335700000000000000000000000000000000047
S11335800000000000000000000000000000000037
S11335900000000000000000000000000000000027
S11335A00000000000000000000000000000000017
S11335B00000000000007300320021006100490097
S11335C04A004B004C004D003D0000002400250043
S11335D02B003600310000002000000038003900C4
S11335E03A00260000003B0027005A00660037001E
S11335F02C002D002E0040006A006B006C000000BF
S113360000000000000000000000000000000000B6
S113361000FCAC06007E5603003FAB0100FCAC0688
S1133620007E5603003FAB0100FCAC06007E56034F
S1133630003FAB010000000000000000000000009B
S113364000000000000000000000000000FCAC06C8
S1133650007E5603003FAB010000000000000000A4
S11336600000000000B4C404006CDC02B0F3960156
S113367000B4C404006CDC02B0F3960100B4C404CA
S1133680006CDC02B0F396010000000000000000B2
S11336900000000000000000000000000000000026
S11336A000B4C404005A6202B0F3960100000000A2
S11336B0000000000000000000093D0000093D007A
S11336C040420F0000093D0000093D0040420F0048
S11336D000093D0000093D0040420F0000000000C9
S11336E000000000000000000000000000000000D6
S11336F00000000000093D0000093D0040420F00A9
S113370000000000000000000000000000000000B5
S11337100000000000000000000000000000004164
S113372041414141000000000020202020202020B1
S11337302020200040404040400080004848484845
S1133740003030303030303030363030300000002F
S113375000A0064000B0064000C006404A4B4C00A2
S11337601F212300C1C1B5C60D0A0000C3F0B5C6B0
S11337700D0A0000232D302B2000686C4C00656678
S113378067454647003031323334353637383941AE
S113379042434445460030313233343536373839C4
S11337A06162636465660000F8B500BFF8B500BFE8
S11337B001010101010100000101000001000100FB
S11337C000127A0000010003010100000001000062
S11337D000000C00010100000100000000000000D6
S11337E001000000030101010003030001020301C1
S11337F000060001010000000100000101000000BA
S113380001000000000000000000000000000000B3
S11338100101010101010101000000000B00000091
S11338207C84FF1F010100000084FF1F2B010000A6
S1133830003C010300003D010200004A01020000B7
S11338404B010200004C010200002D010000002E7B
S1133850010000002F0100000030010000003101D0
S11338600000000000C0044001000000020001014B
S113387000000000C0F00F400101000000C004403F
S1133880000000000200010100000000C0F00F4031
S11338900101000000C0044010000000020001010A
S11338A000000000C0F00F400101000000C004400F
S11338B00F0000000200010100000000C0F00F40F2
S11338C00101000000B004400200000000000000FC
S11338D001000000000000000000000000A00440FF
S11338E002000000020000010000000040F00F4050
S11338F00000000000B004400D00000002000001C0
S11339000000000080F00F400000000000B0044000
S11339100C000000020000010000000080F00F40D5
S11339200000000000B00440070000000200000294
S113393000000000000000000000000000B004408F
S11339400600000002000002000000000000000069
S113395000000000410102000042010200002901B0
S11339600000002A010000002B010000002C0100CF
S113397000003401000000350100000036010000A1
S11339800043010200003A010000003C0102000073
S11339903D010200003E010200003F01020000441C
S11339A00102000045010200004601020000470137
S11339B0020000480102000049010200004A01021D
S11339C000004B010200004C01020000370100001E
S11339D00038010000002D010000002E010000004D
S11339E02F0100000030010000003101000000320E
S11339F001000000C9290000D3290000DD290000CE
S1133A005486FF1F000000000000000000000000BA
S1133A1000000000000000000000000000000000A2
S1133A200000000000000000000000000000000092
S1133A300000000000000000000000000000000082
S1133A400000000000000000000000000000000072
S1133A500000000000000000000000000000000062
S1073A60000000005E
S9030411E7
